{
	"contracts/LendingPlatform.sol": {
		"LendingPlatform": {
			"abi": [
				{
					"inputs": [],
					"stateMutability": "nonpayable",
					"type": "constructor"
				},
				{
					"inputs": [],
					"name": "borrow",
					"outputs": [],
					"stateMutability": "payable",
					"type": "function"
				},
				{
					"inputs": [
						{
							"internalType": "address",
							"name": "",
							"type": "address"
						}
					],
					"name": "borrowerLoans",
					"outputs": [
						{
							"internalType": "uint256",
							"name": "collateralAmount",
							"type": "uint256"
						},
						{
							"internalType": "uint256",
							"name": "loanAmount",
							"type": "uint256"
						},
						{
							"internalType": "bool",
							"name": "isRepaid",
							"type": "bool"
						}
					],
					"stateMutability": "view",
					"type": "function"
				},
				{
					"inputs": [],
					"name": "deposit",
					"outputs": [],
					"stateMutability": "payable",
					"type": "function"
				},
				{
					"inputs": [],
					"name": "getContractBalance",
					"outputs": [
						{
							"internalType": "uint256",
							"name": "",
							"type": "uint256"
						}
					],
					"stateMutability": "view",
					"type": "function"
				},
				{
					"inputs": [],
					"name": "interestRate",
					"outputs": [
						{
							"internalType": "uint256",
							"name": "",
							"type": "uint256"
						}
					],
					"stateMutability": "view",
					"type": "function"
				},
				{
					"inputs": [
						{
							"internalType": "address",
							"name": "",
							"type": "address"
						}
					],
					"name": "lenderBalances",
					"outputs": [
						{
							"internalType": "uint256",
							"name": "",
							"type": "uint256"
						}
					],
					"stateMutability": "view",
					"type": "function"
				},
				{
					"inputs": [],
					"name": "owner",
					"outputs": [
						{
							"internalType": "address",
							"name": "",
							"type": "address"
						}
					],
					"stateMutability": "view",
					"type": "function"
				},
				{
					"inputs": [],
					"name": "repay",
					"outputs": [],
					"stateMutability": "payable",
					"type": "function"
				},
				{
					"inputs": [],
					"name": "withdrawCollateral",
					"outputs": [],
					"stateMutability": "nonpayable",
					"type": "function"
				}
			],
			"devdoc": {
				"kind": "dev",
				"methods": {},
				"version": 1
			},
			"evm": {
				"assembly": "    /* \"contracts/LendingPlatform.sol\":60:2115  contract LendingPlatform {\r... */\n  mstore(0x40, 0x80)\n    /* \"contracts/LendingPlatform.sol\":146:148  10 */\n  0x0a\n    /* \"contracts/LendingPlatform.sol\":119:148  uint public interestRate = 10 */\n  0x01\n  sstore\n    /* \"contracts/LendingPlatform.sol\":390:441  constructor() {\r... */\n  callvalue\n  dup1\n  iszero\n  tag_1\n  jumpi\n  0x00\n  dup1\n  revert\ntag_1:\n  pop\n    /* \"contracts/LendingPlatform.sol\":423:433  msg.sender */\n  caller\n    /* \"contracts/LendingPlatform.sol\":415:420  owner */\n  0x00\n  dup1\n    /* \"contracts/LendingPlatform.sol\":415:433  owner = msg.sender */\n  0x0100\n  exp\n  dup2\n  sload\n  dup2\n  0xffffffffffffffffffffffffffffffffffffffff\n  mul\n  not\n  and\n  swap1\n  dup4\n  0xffffffffffffffffffffffffffffffffffffffff\n  and\n  mul\n  or\n  swap1\n  sstore\n  pop\n    /* \"contracts/LendingPlatform.sol\":60:2115  contract LendingPlatform {\r... */\n  dataSize(sub_0)\n  dup1\n  dataOffset(sub_0)\n  0x00\n  codecopy\n  0x00\n  return\nstop\n\nsub_0: assembly {\n        /* \"contracts/LendingPlatform.sol\":60:2115  contract LendingPlatform {\r... */\n      mstore(0x40, 0x80)\n      jumpi(tag_1, lt(calldatasize, 0x04))\n      shr(0xe0, calldataload(0x00))\n      dup1\n      0x8da5cb5b\n      gt\n      tag_11\n      jumpi\n      dup1\n      0x8da5cb5b\n      eq\n      tag_6\n      jumpi\n      dup1\n      0xa27a944d\n      eq\n      tag_7\n      jumpi\n      dup1\n      0xbf00a769\n      eq\n      tag_8\n      jumpi\n      dup1\n      0xd0e30db0\n      eq\n      tag_9\n      jumpi\n      dup1\n      0xe68d3569\n      eq\n      tag_10\n      jumpi\n      jump(tag_1)\n    tag_11:\n      dup1\n      0x402d8883\n      eq\n      tag_2\n      jumpi\n      dup1\n      0x59c153be\n      eq\n      tag_3\n      jumpi\n      dup1\n      0x6f9fb98a\n      eq\n      tag_4\n      jumpi\n      dup1\n      0x7c3a00fd\n      eq\n      tag_5\n      jumpi\n    tag_1:\n      0x00\n      dup1\n      revert\n        /* \"contracts/LendingPlatform.sol\":1196:1535  function repay() external payable {\r... */\n    tag_2:\n      tag_12\n      tag_13\n      jump\t// in\n    tag_12:\n      stop\n        /* \"contracts/LendingPlatform.sol\":1587:1953  function withdrawCollateral() external {\r... */\n    tag_3:\n      callvalue\n      dup1\n      iszero\n      tag_14\n      jumpi\n      0x00\n      dup1\n      revert\n    tag_14:\n      pop\n      tag_15\n      tag_16\n      jump\t// in\n    tag_15:\n      stop\n        /* \"contracts/LendingPlatform.sol\":2006:2112  function getContractBalance() external view returns (uint) {\r... */\n    tag_4:\n      callvalue\n      dup1\n      iszero\n      tag_17\n      jumpi\n      0x00\n      dup1\n      revert\n    tag_17:\n      pop\n      tag_18\n      tag_19\n      jump\t// in\n    tag_18:\n      mload(0x40)\n      tag_20\n      swap2\n      swap1\n      tag_21\n      jump\t// in\n    tag_20:\n      mload(0x40)\n      dup1\n      swap2\n      sub\n      swap1\n      return\n        /* \"contracts/LendingPlatform.sol\":119:148  uint public interestRate = 10 */\n    tag_5:\n      callvalue\n      dup1\n      iszero\n      tag_22\n      jumpi\n      0x00\n      dup1\n      revert\n    tag_22:\n      pop\n      tag_23\n      tag_24\n      jump\t// in\n    tag_23:\n      mload(0x40)\n      tag_25\n      swap2\n      swap1\n      tag_21\n      jump\t// in\n    tag_25:\n      mload(0x40)\n      dup1\n      swap2\n      sub\n      swap1\n      return\n        /* \"contracts/LendingPlatform.sol\":92:112  address public owner */\n    tag_6:\n      callvalue\n      dup1\n      iszero\n      tag_26\n      jumpi\n      0x00\n      dup1\n      revert\n    tag_26:\n      pop\n      tag_27\n      tag_28\n      jump\t// in\n    tag_27:\n      mload(0x40)\n      tag_29\n      swap2\n      swap1\n      tag_30\n      jump\t// in\n    tag_29:\n      mload(0x40)\n      dup1\n      swap2\n      sub\n      swap1\n      return\n        /* \"contracts/LendingPlatform.sol\":283:329  mapping(address => uint) public lenderBalances */\n    tag_7:\n      callvalue\n      dup1\n      iszero\n      tag_31\n      jumpi\n      0x00\n      dup1\n      revert\n    tag_31:\n      pop\n      tag_32\n      0x04\n      dup1\n      calldatasize\n      sub\n      dup2\n      add\n      swap1\n      tag_33\n      swap2\n      swap1\n      tag_34\n      jump\t// in\n    tag_33:\n      tag_35\n      jump\t// in\n    tag_32:\n      mload(0x40)\n      tag_36\n      swap2\n      swap1\n      tag_21\n      jump\t// in\n    tag_36:\n      mload(0x40)\n      dup1\n      swap2\n      sub\n      swap1\n      return\n        /* \"contracts/LendingPlatform.sol\":336:381  mapping(address => Loan) public borrowerLoans */\n    tag_8:\n      callvalue\n      dup1\n      iszero\n      tag_37\n      jumpi\n      0x00\n      dup1\n      revert\n    tag_37:\n      pop\n      tag_38\n      0x04\n      dup1\n      calldatasize\n      sub\n      dup2\n      add\n      swap1\n      tag_39\n      swap2\n      swap1\n      tag_34\n      jump\t// in\n    tag_39:\n      tag_40\n      jump\t// in\n    tag_38:\n      mload(0x40)\n      tag_41\n      swap4\n      swap3\n      swap2\n      swap1\n      tag_42\n      jump\t// in\n    tag_41:\n      mload(0x40)\n      dup1\n      swap2\n      sub\n      swap1\n      return\n        /* \"contracts/LendingPlatform.sol\":477:632  function deposit() external payable {\r... */\n    tag_9:\n      tag_43\n      tag_44\n      jump\t// in\n    tag_43:\n      stop\n        /* \"contracts/LendingPlatform.sol\":693:1151  function borrow() external payable {\r... */\n    tag_10:\n      tag_45\n      tag_46\n      jump\t// in\n    tag_45:\n      stop\n        /* \"contracts/LendingPlatform.sol\":1196:1535  function repay() external payable {\r... */\n    tag_13:\n        /* \"contracts/LendingPlatform.sol\":1241:1258  Loan storage loan */\n      0x00\n        /* \"contracts/LendingPlatform.sol\":1261:1274  borrowerLoans */\n      0x03\n        /* \"contracts/LendingPlatform.sol\":1261:1286  borrowerLoans[msg.sender] */\n      0x00\n        /* \"contracts/LendingPlatform.sol\":1275:1285  msg.sender */\n      caller\n        /* \"contracts/LendingPlatform.sol\":1261:1286  borrowerLoans[msg.sender] */\n      0xffffffffffffffffffffffffffffffffffffffff\n      and\n      0xffffffffffffffffffffffffffffffffffffffff\n      and\n      dup2\n      mstore\n      0x20\n      add\n      swap1\n      dup2\n      mstore\n      0x20\n      add\n      0x00\n      keccak256\n        /* \"contracts/LendingPlatform.sol\":1241:1286  Loan storage loan = borrowerLoans[msg.sender] */\n      swap1\n      pop\n        /* \"contracts/LendingPlatform.sol\":1306:1310  loan */\n      dup1\n        /* \"contracts/LendingPlatform.sol\":1306:1319  loan.isRepaid */\n      0x02\n      add\n      0x00\n      swap1\n      sload\n      swap1\n      0x0100\n      exp\n      swap1\n      div\n      0xff\n      and\n        /* \"contracts/LendingPlatform.sol\":1305:1319  !loan.isRepaid */\n      iszero\n        /* \"contracts/LendingPlatform.sol\":1297:1338  require(!loan.isRepaid, \"Already repaid\") */\n      tag_48\n      jumpi\n      mload(0x40)\n      0x08c379a000000000000000000000000000000000000000000000000000000000\n      dup2\n      mstore\n      0x04\n      add\n      tag_49\n      swap1\n      tag_50\n      jump\t// in\n    tag_49:\n      mload(0x40)\n      dup1\n      swap2\n      sub\n      swap1\n      revert\n    tag_48:\n        /* \"contracts/LendingPlatform.sol\":1351:1365  uint amountDue */\n      0x00\n        /* \"contracts/LendingPlatform.sol\":1420:1423  100 */\n      0x64\n        /* \"contracts/LendingPlatform.sol\":1405:1417  interestRate */\n      sload(0x01)\n        /* \"contracts/LendingPlatform.sol\":1387:1391  loan */\n      dup4\n        /* \"contracts/LendingPlatform.sol\":1387:1402  loan.loanAmount */\n      0x01\n      add\n      sload\n        /* \"contracts/LendingPlatform.sol\":1387:1417  loan.loanAmount * interestRate */\n      tag_51\n      swap2\n      swap1\n      tag_52\n      jump\t// in\n    tag_51:\n        /* \"contracts/LendingPlatform.sol\":1387:1423  loan.loanAmount * interestRate / 100 */\n      tag_53\n      swap2\n      swap1\n      tag_54\n      jump\t// in\n    tag_53:\n        /* \"contracts/LendingPlatform.sol\":1368:1372  loan */\n      dup3\n        /* \"contracts/LendingPlatform.sol\":1368:1383  loan.loanAmount */\n      0x01\n      add\n      sload\n        /* \"contracts/LendingPlatform.sol\":1368:1424  loan.loanAmount + (loan.loanAmount * interestRate / 100) */\n      tag_55\n      swap2\n      swap1\n      tag_56\n      jump\t// in\n    tag_55:\n        /* \"contracts/LendingPlatform.sol\":1351:1424  uint amountDue = loan.loanAmount + (loan.loanAmount * interestRate / 100) */\n      swap1\n      pop\n        /* \"contracts/LendingPlatform.sol\":1456:1465  amountDue */\n      dup1\n        /* \"contracts/LendingPlatform.sol\":1443:1452  msg.value */\n      callvalue\n        /* \"contracts/LendingPlatform.sol\":1443:1465  msg.value >= amountDue */\n      lt\n      iszero\n        /* \"contracts/LendingPlatform.sol\":1435:1494  require(msg.value >= amountDue, \"Not enough to repay loan\") */\n      tag_57\n      jumpi\n      mload(0x40)\n      0x08c379a000000000000000000000000000000000000000000000000000000000\n      dup2\n      mstore\n      0x04\n      add\n      tag_58\n      swap1\n      tag_59\n      jump\t// in\n    tag_58:\n      mload(0x40)\n      dup1\n      swap2\n      sub\n      swap1\n      revert\n    tag_57:\n        /* \"contracts/LendingPlatform.sol\":1523:1527  true */\n      0x01\n        /* \"contracts/LendingPlatform.sol\":1507:1511  loan */\n      dup3\n        /* \"contracts/LendingPlatform.sol\":1507:1520  loan.isRepaid */\n      0x02\n      add\n      0x00\n        /* \"contracts/LendingPlatform.sol\":1507:1527  loan.isRepaid = true */\n      0x0100\n      exp\n      dup2\n      sload\n      dup2\n      0xff\n      mul\n      not\n      and\n      swap1\n      dup4\n      iszero\n      iszero\n      mul\n      or\n      swap1\n      sstore\n      pop\n        /* \"contracts/LendingPlatform.sol\":1230:1535  {\r... */\n      pop\n      pop\n        /* \"contracts/LendingPlatform.sol\":1196:1535  function repay() external payable {\r... */\n      jump\t// out\n        /* \"contracts/LendingPlatform.sol\":1587:1953  function withdrawCollateral() external {\r... */\n    tag_16:\n        /* \"contracts/LendingPlatform.sol\":1637:1654  Loan storage loan */\n      0x00\n        /* \"contracts/LendingPlatform.sol\":1657:1670  borrowerLoans */\n      0x03\n        /* \"contracts/LendingPlatform.sol\":1657:1682  borrowerLoans[msg.sender] */\n      0x00\n        /* \"contracts/LendingPlatform.sol\":1671:1681  msg.sender */\n      caller\n        /* \"contracts/LendingPlatform.sol\":1657:1682  borrowerLoans[msg.sender] */\n      0xffffffffffffffffffffffffffffffffffffffff\n      and\n      0xffffffffffffffffffffffffffffffffffffffff\n      and\n      dup2\n      mstore\n      0x20\n      add\n      swap1\n      dup2\n      mstore\n      0x20\n      add\n      0x00\n      keccak256\n        /* \"contracts/LendingPlatform.sol\":1637:1682  Loan storage loan = borrowerLoans[msg.sender] */\n      swap1\n      pop\n        /* \"contracts/LendingPlatform.sol\":1701:1705  loan */\n      dup1\n        /* \"contracts/LendingPlatform.sol\":1701:1714  loan.isRepaid */\n      0x02\n      add\n      0x00\n      swap1\n      sload\n      swap1\n      0x0100\n      exp\n      swap1\n      div\n      0xff\n      and\n        /* \"contracts/LendingPlatform.sol\":1693:1738  require(loan.isRepaid, \"Loan not repaid yet\") */\n      tag_61\n      jumpi\n      mload(0x40)\n      0x08c379a000000000000000000000000000000000000000000000000000000000\n      dup2\n      mstore\n      0x04\n      add\n      tag_62\n      swap1\n      tag_63\n      jump\t// in\n    tag_62:\n      mload(0x40)\n      dup1\n      swap2\n      sub\n      swap1\n      revert\n    tag_61:\n        /* \"contracts/LendingPlatform.sol\":1781:1782  0 */\n      0x00\n        /* \"contracts/LendingPlatform.sol\":1757:1761  loan */\n      dup2\n        /* \"contracts/LendingPlatform.sol\":1757:1778  loan.collateralAmount */\n      0x00\n      add\n      sload\n        /* \"contracts/LendingPlatform.sol\":1757:1782  loan.collateralAmount > 0 */\n      gt\n        /* \"contracts/LendingPlatform.sol\":1749:1812  require(loan.collateralAmount > 0, \"No collateral to withdraw\") */\n      tag_64\n      jumpi\n      mload(0x40)\n      0x08c379a000000000000000000000000000000000000000000000000000000000\n      dup2\n      mstore\n      0x04\n      add\n      tag_65\n      swap1\n      tag_66\n      jump\t// in\n    tag_65:\n      mload(0x40)\n      dup1\n      swap2\n      sub\n      swap1\n      revert\n    tag_64:\n        /* \"contracts/LendingPlatform.sol\":1825:1836  uint amount */\n      0x00\n        /* \"contracts/LendingPlatform.sol\":1839:1843  loan */\n      dup2\n        /* \"contracts/LendingPlatform.sol\":1839:1860  loan.collateralAmount */\n      0x00\n      add\n      sload\n        /* \"contracts/LendingPlatform.sol\":1825:1860  uint amount = loan.collateralAmount */\n      swap1\n      pop\n        /* \"contracts/LendingPlatform.sol\":1895:1896  0 */\n      0x00\n        /* \"contracts/LendingPlatform.sol\":1871:1875  loan */\n      dup3\n        /* \"contracts/LendingPlatform.sol\":1871:1892  loan.collateralAmount */\n      0x00\n      add\n        /* \"contracts/LendingPlatform.sol\":1871:1896  loan.collateralAmount = 0 */\n      dup2\n      swap1\n      sstore\n      pop\n        /* \"contracts/LendingPlatform.sol\":1917:1927  msg.sender */\n      caller\n        /* \"contracts/LendingPlatform.sol\":1909:1937  payable(msg.sender).transfer */\n      0xffffffffffffffffffffffffffffffffffffffff\n      and\n        /* \"contracts/LendingPlatform.sol\":1909:1945  payable(msg.sender).transfer(amount) */\n      0x08fc\n        /* \"contracts/LendingPlatform.sol\":1938:1944  amount */\n      dup3\n        /* \"contracts/LendingPlatform.sol\":1909:1945  payable(msg.sender).transfer(amount) */\n      swap1\n      dup2\n      iszero\n      mul\n      swap1\n      mload(0x40)\n      0x00\n      mload(0x40)\n      dup1\n      dup4\n      sub\n      dup2\n      dup6\n      dup9\n      dup9\n      call\n      swap4\n      pop\n      pop\n      pop\n      pop\n      iszero\n      dup1\n      iszero\n      tag_68\n      jumpi\n      returndatasize\n      0x00\n      dup1\n      returndatacopy\n      revert(0x00, returndatasize)\n    tag_68:\n      pop\n        /* \"contracts/LendingPlatform.sol\":1626:1953  {\r... */\n      pop\n      pop\n        /* \"contracts/LendingPlatform.sol\":1587:1953  function withdrawCollateral() external {\r... */\n      jump\t// out\n        /* \"contracts/LendingPlatform.sol\":2006:2112  function getContractBalance() external view returns (uint) {\r... */\n    tag_19:\n        /* \"contracts/LendingPlatform.sol\":2059:2063  uint */\n      0x00\n        /* \"contracts/LendingPlatform.sol\":2083:2104  address(this).balance */\n      selfbalance\n        /* \"contracts/LendingPlatform.sol\":2076:2104  return address(this).balance */\n      swap1\n      pop\n        /* \"contracts/LendingPlatform.sol\":2006:2112  function getContractBalance() external view returns (uint) {\r... */\n      swap1\n      jump\t// out\n        /* \"contracts/LendingPlatform.sol\":119:148  uint public interestRate = 10 */\n    tag_24:\n      sload(0x01)\n      dup2\n      jump\t// out\n        /* \"contracts/LendingPlatform.sol\":92:112  address public owner */\n    tag_28:\n      0x00\n      dup1\n      sload\n      swap1\n      0x0100\n      exp\n      swap1\n      div\n      0xffffffffffffffffffffffffffffffffffffffff\n      and\n      dup2\n      jump\t// out\n        /* \"contracts/LendingPlatform.sol\":283:329  mapping(address => uint) public lenderBalances */\n    tag_35:\n      mstore(0x20, 0x02)\n      dup1\n      0x00\n      mstore\n      keccak256(0x00, 0x40)\n      0x00\n      swap2\n      pop\n      swap1\n      pop\n      sload\n      dup2\n      jump\t// out\n        /* \"contracts/LendingPlatform.sol\":336:381  mapping(address => Loan) public borrowerLoans */\n    tag_40:\n      mstore(0x20, 0x03)\n      dup1\n      0x00\n      mstore\n      keccak256(0x00, 0x40)\n      0x00\n      swap2\n      pop\n      swap1\n      pop\n      dup1\n      0x00\n      add\n      sload\n      swap1\n      dup1\n      0x01\n      add\n      sload\n      swap1\n      dup1\n      0x02\n      add\n      0x00\n      swap1\n      sload\n      swap1\n      0x0100\n      exp\n      swap1\n      div\n      0xff\n      and\n      swap1\n      pop\n      dup4\n      jump\t// out\n        /* \"contracts/LendingPlatform.sol\":477:632  function deposit() external payable {\r... */\n    tag_44:\n        /* \"contracts/LendingPlatform.sol\":544:545  0 */\n      0x00\n        /* \"contracts/LendingPlatform.sol\":532:541  msg.value */\n      callvalue\n        /* \"contracts/LendingPlatform.sol\":532:545  msg.value > 0 */\n      gt\n        /* \"contracts/LendingPlatform.sol\":524:574  require(msg.value > 0, \"Must deposit more than 0\") */\n      tag_71\n      jumpi\n      mload(0x40)\n      0x08c379a000000000000000000000000000000000000000000000000000000000\n      dup2\n      mstore\n      0x04\n      add\n      tag_72\n      swap1\n      tag_73\n      jump\t// in\n    tag_72:\n      mload(0x40)\n      dup1\n      swap2\n      sub\n      swap1\n      revert\n    tag_71:\n        /* \"contracts/LendingPlatform.sol\":615:624  msg.value */\n      callvalue\n        /* \"contracts/LendingPlatform.sol\":585:599  lenderBalances */\n      0x02\n        /* \"contracts/LendingPlatform.sol\":585:611  lenderBalances[msg.sender] */\n      0x00\n        /* \"contracts/LendingPlatform.sol\":600:610  msg.sender */\n      caller\n        /* \"contracts/LendingPlatform.sol\":585:611  lenderBalances[msg.sender] */\n      0xffffffffffffffffffffffffffffffffffffffff\n      and\n      0xffffffffffffffffffffffffffffffffffffffff\n      and\n      dup2\n      mstore\n      0x20\n      add\n      swap1\n      dup2\n      mstore\n      0x20\n      add\n      0x00\n      keccak256\n      0x00\n        /* \"contracts/LendingPlatform.sol\":585:624  lenderBalances[msg.sender] += msg.value */\n      dup3\n      dup3\n      sload\n      tag_74\n      swap2\n      swap1\n      tag_56\n      jump\t// in\n    tag_74:\n      swap3\n      pop\n      pop\n      dup2\n      swap1\n      sstore\n      pop\n        /* \"contracts/LendingPlatform.sol\":477:632  function deposit() external payable {\r... */\n      jump\t// out\n        /* \"contracts/LendingPlatform.sol\":693:1151  function borrow() external payable {\r... */\n    tag_46:\n        /* \"contracts/LendingPlatform.sol\":759:760  0 */\n      0x00\n        /* \"contracts/LendingPlatform.sol\":747:756  msg.value */\n      callvalue\n        /* \"contracts/LendingPlatform.sol\":747:760  msg.value > 0 */\n      gt\n        /* \"contracts/LendingPlatform.sol\":739:788  require(msg.value > 0, \"Must provide collateral\") */\n      tag_76\n      jumpi\n      mload(0x40)\n      0x08c379a000000000000000000000000000000000000000000000000000000000\n      dup2\n      mstore\n      0x04\n      add\n      tag_77\n      swap1\n      tag_78\n      jump\t// in\n    tag_77:\n      mload(0x40)\n      dup1\n      swap2\n      sub\n      swap1\n      revert\n    tag_76:\n        /* \"contracts/LendingPlatform.sol\":844:845  2 */\n      0x02\n        /* \"contracts/LendingPlatform.sol\":832:841  msg.value */\n      callvalue\n        /* \"contracts/LendingPlatform.sol\":832:845  msg.value / 2 */\n      tag_79\n      swap2\n      swap1\n      tag_54\n      jump\t// in\n    tag_79:\n        /* \"contracts/LendingPlatform.sol\":807:828  address(this).balance */\n      selfbalance\n        /* \"contracts/LendingPlatform.sol\":807:845  address(this).balance >= msg.value / 2 */\n      lt\n      iszero\n        /* \"contracts/LendingPlatform.sol\":799:870  require(address(this).balance >= msg.value / 2, \"Not enough liquidity\") */\n      tag_80\n      jumpi\n      mload(0x40)\n      0x08c379a000000000000000000000000000000000000000000000000000000000\n      dup2\n      mstore\n      0x04\n      add\n      tag_81\n      swap1\n      tag_82\n      jump\t// in\n    tag_81:\n      mload(0x40)\n      dup1\n      swap2\n      sub\n      swap1\n      revert\n    tag_80:\n        /* \"contracts/LendingPlatform.sol\":883:898  uint loanAmount */\n      0x00\n        /* \"contracts/LendingPlatform.sol\":913:914  2 */\n      0x02\n        /* \"contracts/LendingPlatform.sol\":901:910  msg.value */\n      callvalue\n        /* \"contracts/LendingPlatform.sol\":901:914  msg.value / 2 */\n      tag_83\n      swap2\n      swap1\n      tag_54\n      jump\t// in\n    tag_83:\n        /* \"contracts/LendingPlatform.sol\":883:914  uint loanAmount = msg.value / 2 */\n      swap1\n      pop\n        /* \"contracts/LendingPlatform.sol\":964:1090  Loan({\r... */\n      mload(0x40)\n      dup1\n      0x60\n      add\n      0x40\n      mstore\n      dup1\n        /* \"contracts/LendingPlatform.sol\":1002:1011  msg.value */\n      callvalue\n        /* \"contracts/LendingPlatform.sol\":964:1090  Loan({\r... */\n      dup2\n      mstore\n      0x20\n      add\n        /* \"contracts/LendingPlatform.sol\":1038:1048  loanAmount */\n      dup3\n        /* \"contracts/LendingPlatform.sol\":964:1090  Loan({\r... */\n      dup2\n      mstore\n      0x20\n      add\n        /* \"contracts/LendingPlatform.sol\":1073:1078  false */\n      0x00\n        /* \"contracts/LendingPlatform.sol\":964:1090  Loan({\r... */\n      iszero\n      iszero\n      dup2\n      mstore\n      pop\n        /* \"contracts/LendingPlatform.sol\":936:949  borrowerLoans */\n      0x03\n        /* \"contracts/LendingPlatform.sol\":936:961  borrowerLoans[msg.sender] */\n      0x00\n        /* \"contracts/LendingPlatform.sol\":950:960  msg.sender */\n      caller\n        /* \"contracts/LendingPlatform.sol\":936:961  borrowerLoans[msg.sender] */\n      0xffffffffffffffffffffffffffffffffffffffff\n      and\n      0xffffffffffffffffffffffffffffffffffffffff\n      and\n      dup2\n      mstore\n      0x20\n      add\n      swap1\n      dup2\n      mstore\n      0x20\n      add\n      0x00\n      keccak256\n        /* \"contracts/LendingPlatform.sol\":936:1090  borrowerLoans[msg.sender] = Loan({\r... */\n      0x00\n      dup3\n      add\n      mload\n      dup2\n      0x00\n      add\n      sstore\n      0x20\n      dup3\n      add\n      mload\n      dup2\n      0x01\n      add\n      sstore\n      0x40\n      dup3\n      add\n      mload\n      dup2\n      0x02\n      add\n      exp(0x0100, 0x00)\n      dup2\n      sload\n      dup2\n      0xff\n      mul\n      not\n      and\n      swap1\n      dup4\n      iszero\n      iszero\n      mul\n      or\n      swap1\n      sstore\n      pop\n      swap1\n      pop\n      pop\n        /* \"contracts/LendingPlatform.sol\":1111:1121  msg.sender */\n      caller\n        /* \"contracts/LendingPlatform.sol\":1103:1131  payable(msg.sender).transfer */\n      0xffffffffffffffffffffffffffffffffffffffff\n      and\n        /* \"contracts/LendingPlatform.sol\":1103:1143  payable(msg.sender).transfer(loanAmount) */\n      0x08fc\n        /* \"contracts/LendingPlatform.sol\":1132:1142  loanAmount */\n      dup3\n        /* \"contracts/LendingPlatform.sol\":1103:1143  payable(msg.sender).transfer(loanAmount) */\n      swap1\n      dup2\n      iszero\n      mul\n      swap1\n      mload(0x40)\n      0x00\n      mload(0x40)\n      dup1\n      dup4\n      sub\n      dup2\n      dup6\n      dup9\n      dup9\n      call\n      swap4\n      pop\n      pop\n      pop\n      pop\n      iszero\n      dup1\n      iszero\n      tag_85\n      jumpi\n      returndatasize\n      0x00\n      dup1\n      returndatacopy\n      revert(0x00, returndatasize)\n    tag_85:\n      pop\n        /* \"contracts/LendingPlatform.sol\":728:1151  {\r... */\n      pop\n        /* \"contracts/LendingPlatform.sol\":693:1151  function borrow() external payable {\r... */\n      jump\t// out\n        /* \"#utility.yul\":7:146   */\n    tag_87:\n        /* \"#utility.yul\":53:58   */\n      0x00\n        /* \"#utility.yul\":91:97   */\n      dup2\n        /* \"#utility.yul\":78:98   */\n      calldataload\n        /* \"#utility.yul\":69:98   */\n      swap1\n      pop\n        /* \"#utility.yul\":107:140   */\n      tag_89\n        /* \"#utility.yul\":134:139   */\n      dup2\n        /* \"#utility.yul\":107:140   */\n      tag_90\n      jump\t// in\n    tag_89:\n        /* \"#utility.yul\":7:146   */\n      swap3\n      swap2\n      pop\n      pop\n      jump\t// out\n        /* \"#utility.yul\":152:481   */\n    tag_34:\n        /* \"#utility.yul\":211:217   */\n      0x00\n        /* \"#utility.yul\":260:262   */\n      0x20\n        /* \"#utility.yul\":248:257   */\n      dup3\n        /* \"#utility.yul\":239:246   */\n      dup5\n        /* \"#utility.yul\":235:258   */\n      sub\n        /* \"#utility.yul\":231:263   */\n      slt\n        /* \"#utility.yul\":228:347   */\n      iszero\n      tag_92\n      jumpi\n        /* \"#utility.yul\":266:345   */\n      tag_93\n      tag_94\n      jump\t// in\n    tag_93:\n        /* \"#utility.yul\":228:347   */\n    tag_92:\n        /* \"#utility.yul\":386:387   */\n      0x00\n        /* \"#utility.yul\":411:464   */\n      tag_95\n        /* \"#utility.yul\":456:463   */\n      dup5\n        /* \"#utility.yul\":447:453   */\n      dup3\n        /* \"#utility.yul\":436:445   */\n      dup6\n        /* \"#utility.yul\":432:454   */\n      add\n        /* \"#utility.yul\":411:464   */\n      tag_87\n      jump\t// in\n    tag_95:\n        /* \"#utility.yul\":401:464   */\n      swap2\n      pop\n        /* \"#utility.yul\":357:474   */\n      pop\n        /* \"#utility.yul\":152:481   */\n      swap3\n      swap2\n      pop\n      pop\n      jump\t// out\n        /* \"#utility.yul\":487:605   */\n    tag_96:\n        /* \"#utility.yul\":574:598   */\n      tag_98\n        /* \"#utility.yul\":592:597   */\n      dup2\n        /* \"#utility.yul\":574:598   */\n      tag_99\n      jump\t// in\n    tag_98:\n        /* \"#utility.yul\":569:572   */\n      dup3\n        /* \"#utility.yul\":562:599   */\n      mstore\n        /* \"#utility.yul\":487:605   */\n      pop\n      pop\n      jump\t// out\n        /* \"#utility.yul\":611:720   */\n    tag_100:\n        /* \"#utility.yul\":692:713   */\n      tag_102\n        /* \"#utility.yul\":707:712   */\n      dup2\n        /* \"#utility.yul\":692:713   */\n      tag_103\n      jump\t// in\n    tag_102:\n        /* \"#utility.yul\":687:690   */\n      dup3\n        /* \"#utility.yul\":680:714   */\n      mstore\n        /* \"#utility.yul\":611:720   */\n      pop\n      pop\n      jump\t// out\n        /* \"#utility.yul\":726:1092   */\n    tag_104:\n        /* \"#utility.yul\":868:871   */\n      0x00\n        /* \"#utility.yul\":889:956   */\n      tag_106\n        /* \"#utility.yul\":953:955   */\n      0x18\n        /* \"#utility.yul\":948:951   */\n      dup4\n        /* \"#utility.yul\":889:956   */\n      tag_107\n      jump\t// in\n    tag_106:\n        /* \"#utility.yul\":882:956   */\n      swap2\n      pop\n        /* \"#utility.yul\":965:1058   */\n      tag_108\n        /* \"#utility.yul\":1054:1057   */\n      dup3\n        /* \"#utility.yul\":965:1058   */\n      tag_109\n      jump\t// in\n    tag_108:\n        /* \"#utility.yul\":1083:1085   */\n      0x20\n        /* \"#utility.yul\":1078:1081   */\n      dup3\n        /* \"#utility.yul\":1074:1086   */\n      add\n        /* \"#utility.yul\":1067:1086   */\n      swap1\n      pop\n        /* \"#utility.yul\":726:1092   */\n      swap2\n      swap1\n      pop\n      jump\t// out\n        /* \"#utility.yul\":1098:1464   */\n    tag_110:\n        /* \"#utility.yul\":1240:1243   */\n      0x00\n        /* \"#utility.yul\":1261:1328   */\n      tag_112\n        /* \"#utility.yul\":1325:1327   */\n      0x13\n        /* \"#utility.yul\":1320:1323   */\n      dup4\n        /* \"#utility.yul\":1261:1328   */\n      tag_107\n      jump\t// in\n    tag_112:\n        /* \"#utility.yul\":1254:1328   */\n      swap2\n      pop\n        /* \"#utility.yul\":1337:1430   */\n      tag_113\n        /* \"#utility.yul\":1426:1429   */\n      dup3\n        /* \"#utility.yul\":1337:1430   */\n      tag_114\n      jump\t// in\n    tag_113:\n        /* \"#utility.yul\":1455:1457   */\n      0x20\n        /* \"#utility.yul\":1450:1453   */\n      dup3\n        /* \"#utility.yul\":1446:1458   */\n      add\n        /* \"#utility.yul\":1439:1458   */\n      swap1\n      pop\n        /* \"#utility.yul\":1098:1464   */\n      swap2\n      swap1\n      pop\n      jump\t// out\n        /* \"#utility.yul\":1470:1836   */\n    tag_115:\n        /* \"#utility.yul\":1612:1615   */\n      0x00\n        /* \"#utility.yul\":1633:1700   */\n      tag_117\n        /* \"#utility.yul\":1697:1699   */\n      0x0e\n        /* \"#utility.yul\":1692:1695   */\n      dup4\n        /* \"#utility.yul\":1633:1700   */\n      tag_107\n      jump\t// in\n    tag_117:\n        /* \"#utility.yul\":1626:1700   */\n      swap2\n      pop\n        /* \"#utility.yul\":1709:1802   */\n      tag_118\n        /* \"#utility.yul\":1798:1801   */\n      dup3\n        /* \"#utility.yul\":1709:1802   */\n      tag_119\n      jump\t// in\n    tag_118:\n        /* \"#utility.yul\":1827:1829   */\n      0x20\n        /* \"#utility.yul\":1822:1825   */\n      dup3\n        /* \"#utility.yul\":1818:1830   */\n      add\n        /* \"#utility.yul\":1811:1830   */\n      swap1\n      pop\n        /* \"#utility.yul\":1470:1836   */\n      swap2\n      swap1\n      pop\n      jump\t// out\n        /* \"#utility.yul\":1842:2208   */\n    tag_120:\n        /* \"#utility.yul\":1984:1987   */\n      0x00\n        /* \"#utility.yul\":2005:2072   */\n      tag_122\n        /* \"#utility.yul\":2069:2071   */\n      0x19\n        /* \"#utility.yul\":2064:2067   */\n      dup4\n        /* \"#utility.yul\":2005:2072   */\n      tag_107\n      jump\t// in\n    tag_122:\n        /* \"#utility.yul\":1998:2072   */\n      swap2\n      pop\n        /* \"#utility.yul\":2081:2174   */\n      tag_123\n        /* \"#utility.yul\":2170:2173   */\n      dup3\n        /* \"#utility.yul\":2081:2174   */\n      tag_124\n      jump\t// in\n    tag_123:\n        /* \"#utility.yul\":2199:2201   */\n      0x20\n        /* \"#utility.yul\":2194:2197   */\n      dup3\n        /* \"#utility.yul\":2190:2202   */\n      add\n        /* \"#utility.yul\":2183:2202   */\n      swap1\n      pop\n        /* \"#utility.yul\":1842:2208   */\n      swap2\n      swap1\n      pop\n      jump\t// out\n        /* \"#utility.yul\":2214:2580   */\n    tag_125:\n        /* \"#utility.yul\":2356:2359   */\n      0x00\n        /* \"#utility.yul\":2377:2444   */\n      tag_127\n        /* \"#utility.yul\":2441:2443   */\n      0x14\n        /* \"#utility.yul\":2436:2439   */\n      dup4\n        /* \"#utility.yul\":2377:2444   */\n      tag_107\n      jump\t// in\n    tag_127:\n        /* \"#utility.yul\":2370:2444   */\n      swap2\n      pop\n        /* \"#utility.yul\":2453:2546   */\n      tag_128\n        /* \"#utility.yul\":2542:2545   */\n      dup3\n        /* \"#utility.yul\":2453:2546   */\n      tag_129\n      jump\t// in\n    tag_128:\n        /* \"#utility.yul\":2571:2573   */\n      0x20\n        /* \"#utility.yul\":2566:2569   */\n      dup3\n        /* \"#utility.yul\":2562:2574   */\n      add\n        /* \"#utility.yul\":2555:2574   */\n      swap1\n      pop\n        /* \"#utility.yul\":2214:2580   */\n      swap2\n      swap1\n      pop\n      jump\t// out\n        /* \"#utility.yul\":2586:2952   */\n    tag_130:\n        /* \"#utility.yul\":2728:2731   */\n      0x00\n        /* \"#utility.yul\":2749:2816   */\n      tag_132\n        /* \"#utility.yul\":2813:2815   */\n      0x17\n        /* \"#utility.yul\":2808:2811   */\n      dup4\n        /* \"#utility.yul\":2749:2816   */\n      tag_107\n      jump\t// in\n    tag_132:\n        /* \"#utility.yul\":2742:2816   */\n      swap2\n      pop\n        /* \"#utility.yul\":2825:2918   */\n      tag_133\n        /* \"#utility.yul\":2914:2917   */\n      dup3\n        /* \"#utility.yul\":2825:2918   */\n      tag_134\n      jump\t// in\n    tag_133:\n        /* \"#utility.yul\":2943:2945   */\n      0x20\n        /* \"#utility.yul\":2938:2941   */\n      dup3\n        /* \"#utility.yul\":2934:2946   */\n      add\n        /* \"#utility.yul\":2927:2946   */\n      swap1\n      pop\n        /* \"#utility.yul\":2586:2952   */\n      swap2\n      swap1\n      pop\n      jump\t// out\n        /* \"#utility.yul\":2958:3324   */\n    tag_135:\n        /* \"#utility.yul\":3100:3103   */\n      0x00\n        /* \"#utility.yul\":3121:3188   */\n      tag_137\n        /* \"#utility.yul\":3185:3187   */\n      0x18\n        /* \"#utility.yul\":3180:3183   */\n      dup4\n        /* \"#utility.yul\":3121:3188   */\n      tag_107\n      jump\t// in\n    tag_137:\n        /* \"#utility.yul\":3114:3188   */\n      swap2\n      pop\n        /* \"#utility.yul\":3197:3290   */\n      tag_138\n        /* \"#utility.yul\":3286:3289   */\n      dup3\n        /* \"#utility.yul\":3197:3290   */\n      tag_139\n      jump\t// in\n    tag_138:\n        /* \"#utility.yul\":3315:3317   */\n      0x20\n        /* \"#utility.yul\":3310:3313   */\n      dup3\n        /* \"#utility.yul\":3306:3318   */\n      add\n        /* \"#utility.yul\":3299:3318   */\n      swap1\n      pop\n        /* \"#utility.yul\":2958:3324   */\n      swap2\n      swap1\n      pop\n      jump\t// out\n        /* \"#utility.yul\":3330:3448   */\n    tag_140:\n        /* \"#utility.yul\":3417:3441   */\n      tag_142\n        /* \"#utility.yul\":3435:3440   */\n      dup2\n        /* \"#utility.yul\":3417:3441   */\n      tag_143\n      jump\t// in\n    tag_142:\n        /* \"#utility.yul\":3412:3415   */\n      dup3\n        /* \"#utility.yul\":3405:3442   */\n      mstore\n        /* \"#utility.yul\":3330:3448   */\n      pop\n      pop\n      jump\t// out\n        /* \"#utility.yul\":3454:3676   */\n    tag_30:\n        /* \"#utility.yul\":3547:3551   */\n      0x00\n        /* \"#utility.yul\":3585:3587   */\n      0x20\n        /* \"#utility.yul\":3574:3583   */\n      dup3\n        /* \"#utility.yul\":3570:3588   */\n      add\n        /* \"#utility.yul\":3562:3588   */\n      swap1\n      pop\n        /* \"#utility.yul\":3598:3669   */\n      tag_145\n        /* \"#utility.yul\":3666:3667   */\n      0x00\n        /* \"#utility.yul\":3655:3664   */\n      dup4\n        /* \"#utility.yul\":3651:3668   */\n      add\n        /* \"#utility.yul\":3642:3648   */\n      dup5\n        /* \"#utility.yul\":3598:3669   */\n      tag_96\n      jump\t// in\n    tag_145:\n        /* \"#utility.yul\":3454:3676   */\n      swap3\n      swap2\n      pop\n      pop\n      jump\t// out\n        /* \"#utility.yul\":3682:4101   */\n    tag_59:\n        /* \"#utility.yul\":3848:3852   */\n      0x00\n        /* \"#utility.yul\":3886:3888   */\n      0x20\n        /* \"#utility.yul\":3875:3884   */\n      dup3\n        /* \"#utility.yul\":3871:3889   */\n      add\n        /* \"#utility.yul\":3863:3889   */\n      swap1\n      pop\n        /* \"#utility.yul\":3935:3944   */\n      dup2\n        /* \"#utility.yul\":3929:3933   */\n      dup2\n        /* \"#utility.yul\":3925:3945   */\n      sub\n        /* \"#utility.yul\":3921:3922   */\n      0x00\n        /* \"#utility.yul\":3910:3919   */\n      dup4\n        /* \"#utility.yul\":3906:3923   */\n      add\n        /* \"#utility.yul\":3899:3946   */\n      mstore\n        /* \"#utility.yul\":3963:4094   */\n      tag_147\n        /* \"#utility.yul\":4089:4093   */\n      dup2\n        /* \"#utility.yul\":3963:4094   */\n      tag_104\n      jump\t// in\n    tag_147:\n        /* \"#utility.yul\":3955:4094   */\n      swap1\n      pop\n        /* \"#utility.yul\":3682:4101   */\n      swap2\n      swap1\n      pop\n      jump\t// out\n        /* \"#utility.yul\":4107:4526   */\n    tag_63:\n        /* \"#utility.yul\":4273:4277   */\n      0x00\n        /* \"#utility.yul\":4311:4313   */\n      0x20\n        /* \"#utility.yul\":4300:4309   */\n      dup3\n        /* \"#utility.yul\":4296:4314   */\n      add\n        /* \"#utility.yul\":4288:4314   */\n      swap1\n      pop\n        /* \"#utility.yul\":4360:4369   */\n      dup2\n        /* \"#utility.yul\":4354:4358   */\n      dup2\n        /* \"#utility.yul\":4350:4370   */\n      sub\n        /* \"#utility.yul\":4346:4347   */\n      0x00\n        /* \"#utility.yul\":4335:4344   */\n      dup4\n        /* \"#utility.yul\":4331:4348   */\n      add\n        /* \"#utility.yul\":4324:4371   */\n      mstore\n        /* \"#utility.yul\":4388:4519   */\n      tag_149\n        /* \"#utility.yul\":4514:4518   */\n      dup2\n        /* \"#utility.yul\":4388:4519   */\n      tag_110\n      jump\t// in\n    tag_149:\n        /* \"#utility.yul\":4380:4519   */\n      swap1\n      pop\n        /* \"#utility.yul\":4107:4526   */\n      swap2\n      swap1\n      pop\n      jump\t// out\n        /* \"#utility.yul\":4532:4951   */\n    tag_50:\n        /* \"#utility.yul\":4698:4702   */\n      0x00\n        /* \"#utility.yul\":4736:4738   */\n      0x20\n        /* \"#utility.yul\":4725:4734   */\n      dup3\n        /* \"#utility.yul\":4721:4739   */\n      add\n        /* \"#utility.yul\":4713:4739   */\n      swap1\n      pop\n        /* \"#utility.yul\":4785:4794   */\n      dup2\n        /* \"#utility.yul\":4779:4783   */\n      dup2\n        /* \"#utility.yul\":4775:4795   */\n      sub\n        /* \"#utility.yul\":4771:4772   */\n      0x00\n        /* \"#utility.yul\":4760:4769   */\n      dup4\n        /* \"#utility.yul\":4756:4773   */\n      add\n        /* \"#utility.yul\":4749:4796   */\n      mstore\n        /* \"#utility.yul\":4813:4944   */\n      tag_151\n        /* \"#utility.yul\":4939:4943   */\n      dup2\n        /* \"#utility.yul\":4813:4944   */\n      tag_115\n      jump\t// in\n    tag_151:\n        /* \"#utility.yul\":4805:4944   */\n      swap1\n      pop\n        /* \"#utility.yul\":4532:4951   */\n      swap2\n      swap1\n      pop\n      jump\t// out\n        /* \"#utility.yul\":4957:5376   */\n    tag_66:\n        /* \"#utility.yul\":5123:5127   */\n      0x00\n        /* \"#utility.yul\":5161:5163   */\n      0x20\n        /* \"#utility.yul\":5150:5159   */\n      dup3\n        /* \"#utility.yul\":5146:5164   */\n      add\n        /* \"#utility.yul\":5138:5164   */\n      swap1\n      pop\n        /* \"#utility.yul\":5210:5219   */\n      dup2\n        /* \"#utility.yul\":5204:5208   */\n      dup2\n        /* \"#utility.yul\":5200:5220   */\n      sub\n        /* \"#utility.yul\":5196:5197   */\n      0x00\n        /* \"#utility.yul\":5185:5194   */\n      dup4\n        /* \"#utility.yul\":5181:5198   */\n      add\n        /* \"#utility.yul\":5174:5221   */\n      mstore\n        /* \"#utility.yul\":5238:5369   */\n      tag_153\n        /* \"#utility.yul\":5364:5368   */\n      dup2\n        /* \"#utility.yul\":5238:5369   */\n      tag_120\n      jump\t// in\n    tag_153:\n        /* \"#utility.yul\":5230:5369   */\n      swap1\n      pop\n        /* \"#utility.yul\":4957:5376   */\n      swap2\n      swap1\n      pop\n      jump\t// out\n        /* \"#utility.yul\":5382:5801   */\n    tag_82:\n        /* \"#utility.yul\":5548:5552   */\n      0x00\n        /* \"#utility.yul\":5586:5588   */\n      0x20\n        /* \"#utility.yul\":5575:5584   */\n      dup3\n        /* \"#utility.yul\":5571:5589   */\n      add\n        /* \"#utility.yul\":5563:5589   */\n      swap1\n      pop\n        /* \"#utility.yul\":5635:5644   */\n      dup2\n        /* \"#utility.yul\":5629:5633   */\n      dup2\n        /* \"#utility.yul\":5625:5645   */\n      sub\n        /* \"#utility.yul\":5621:5622   */\n      0x00\n        /* \"#utility.yul\":5610:5619   */\n      dup4\n        /* \"#utility.yul\":5606:5623   */\n      add\n        /* \"#utility.yul\":5599:5646   */\n      mstore\n        /* \"#utility.yul\":5663:5794   */\n      tag_155\n        /* \"#utility.yul\":5789:5793   */\n      dup2\n        /* \"#utility.yul\":5663:5794   */\n      tag_125\n      jump\t// in\n    tag_155:\n        /* \"#utility.yul\":5655:5794   */\n      swap1\n      pop\n        /* \"#utility.yul\":5382:5801   */\n      swap2\n      swap1\n      pop\n      jump\t// out\n        /* \"#utility.yul\":5807:6226   */\n    tag_78:\n        /* \"#utility.yul\":5973:5977   */\n      0x00\n        /* \"#utility.yul\":6011:6013   */\n      0x20\n        /* \"#utility.yul\":6000:6009   */\n      dup3\n        /* \"#utility.yul\":5996:6014   */\n      add\n        /* \"#utility.yul\":5988:6014   */\n      swap1\n      pop\n        /* \"#utility.yul\":6060:6069   */\n      dup2\n        /* \"#utility.yul\":6054:6058   */\n      dup2\n        /* \"#utility.yul\":6050:6070   */\n      sub\n        /* \"#utility.yul\":6046:6047   */\n      0x00\n        /* \"#utility.yul\":6035:6044   */\n      dup4\n        /* \"#utility.yul\":6031:6048   */\n      add\n        /* \"#utility.yul\":6024:6071   */\n      mstore\n        /* \"#utility.yul\":6088:6219   */\n      tag_157\n        /* \"#utility.yul\":6214:6218   */\n      dup2\n        /* \"#utility.yul\":6088:6219   */\n      tag_130\n      jump\t// in\n    tag_157:\n        /* \"#utility.yul\":6080:6219   */\n      swap1\n      pop\n        /* \"#utility.yul\":5807:6226   */\n      swap2\n      swap1\n      pop\n      jump\t// out\n        /* \"#utility.yul\":6232:6651   */\n    tag_73:\n        /* \"#utility.yul\":6398:6402   */\n      0x00\n        /* \"#utility.yul\":6436:6438   */\n      0x20\n        /* \"#utility.yul\":6425:6434   */\n      dup3\n        /* \"#utility.yul\":6421:6439   */\n      add\n        /* \"#utility.yul\":6413:6439   */\n      swap1\n      pop\n        /* \"#utility.yul\":6485:6494   */\n      dup2\n        /* \"#utility.yul\":6479:6483   */\n      dup2\n        /* \"#utility.yul\":6475:6495   */\n      sub\n        /* \"#utility.yul\":6471:6472   */\n      0x00\n        /* \"#utility.yul\":6460:6469   */\n      dup4\n        /* \"#utility.yul\":6456:6473   */\n      add\n        /* \"#utility.yul\":6449:6496   */\n      mstore\n        /* \"#utility.yul\":6513:6644   */\n      tag_159\n        /* \"#utility.yul\":6639:6643   */\n      dup2\n        /* \"#utility.yul\":6513:6644   */\n      tag_135\n      jump\t// in\n    tag_159:\n        /* \"#utility.yul\":6505:6644   */\n      swap1\n      pop\n        /* \"#utility.yul\":6232:6651   */\n      swap2\n      swap1\n      pop\n      jump\t// out\n        /* \"#utility.yul\":6657:6879   */\n    tag_21:\n        /* \"#utility.yul\":6750:6754   */\n      0x00\n        /* \"#utility.yul\":6788:6790   */\n      0x20\n        /* \"#utility.yul\":6777:6786   */\n      dup3\n        /* \"#utility.yul\":6773:6791   */\n      add\n        /* \"#utility.yul\":6765:6791   */\n      swap1\n      pop\n        /* \"#utility.yul\":6801:6872   */\n      tag_161\n        /* \"#utility.yul\":6869:6870   */\n      0x00\n        /* \"#utility.yul\":6858:6867   */\n      dup4\n        /* \"#utility.yul\":6854:6871   */\n      add\n        /* \"#utility.yul\":6845:6851   */\n      dup5\n        /* \"#utility.yul\":6801:6872   */\n      tag_140\n      jump\t// in\n    tag_161:\n        /* \"#utility.yul\":6657:6879   */\n      swap3\n      swap2\n      pop\n      pop\n      jump\t// out\n        /* \"#utility.yul\":6885:7315   */\n    tag_42:\n        /* \"#utility.yul\":7028:7032   */\n      0x00\n        /* \"#utility.yul\":7066:7068   */\n      0x60\n        /* \"#utility.yul\":7055:7064   */\n      dup3\n        /* \"#utility.yul\":7051:7069   */\n      add\n        /* \"#utility.yul\":7043:7069   */\n      swap1\n      pop\n        /* \"#utility.yul\":7079:7150   */\n      tag_163\n        /* \"#utility.yul\":7147:7148   */\n      0x00\n        /* \"#utility.yul\":7136:7145   */\n      dup4\n        /* \"#utility.yul\":7132:7149   */\n      add\n        /* \"#utility.yul\":7123:7129   */\n      dup7\n        /* \"#utility.yul\":7079:7150   */\n      tag_140\n      jump\t// in\n    tag_163:\n        /* \"#utility.yul\":7160:7232   */\n      tag_164\n        /* \"#utility.yul\":7228:7230   */\n      0x20\n        /* \"#utility.yul\":7217:7226   */\n      dup4\n        /* \"#utility.yul\":7213:7231   */\n      add\n        /* \"#utility.yul\":7204:7210   */\n      dup6\n        /* \"#utility.yul\":7160:7232   */\n      tag_140\n      jump\t// in\n    tag_164:\n        /* \"#utility.yul\":7242:7308   */\n      tag_165\n        /* \"#utility.yul\":7304:7306   */\n      0x40\n        /* \"#utility.yul\":7293:7302   */\n      dup4\n        /* \"#utility.yul\":7289:7307   */\n      add\n        /* \"#utility.yul\":7280:7286   */\n      dup5\n        /* \"#utility.yul\":7242:7308   */\n      tag_100\n      jump\t// in\n    tag_165:\n        /* \"#utility.yul\":6885:7315   */\n      swap5\n      swap4\n      pop\n      pop\n      pop\n      pop\n      jump\t// out\n        /* \"#utility.yul\":7402:7571   */\n    tag_107:\n        /* \"#utility.yul\":7486:7497   */\n      0x00\n        /* \"#utility.yul\":7520:7526   */\n      dup3\n        /* \"#utility.yul\":7515:7518   */\n      dup3\n        /* \"#utility.yul\":7508:7527   */\n      mstore\n        /* \"#utility.yul\":7560:7564   */\n      0x20\n        /* \"#utility.yul\":7555:7558   */\n      dup3\n        /* \"#utility.yul\":7551:7565   */\n      add\n        /* \"#utility.yul\":7536:7565   */\n      swap1\n      pop\n        /* \"#utility.yul\":7402:7571   */\n      swap3\n      swap2\n      pop\n      pop\n      jump\t// out\n        /* \"#utility.yul\":7577:7882   */\n    tag_56:\n        /* \"#utility.yul\":7617:7620   */\n      0x00\n        /* \"#utility.yul\":7636:7656   */\n      tag_170\n        /* \"#utility.yul\":7654:7655   */\n      dup3\n        /* \"#utility.yul\":7636:7656   */\n      tag_143\n      jump\t// in\n    tag_170:\n        /* \"#utility.yul\":7631:7656   */\n      swap2\n      pop\n        /* \"#utility.yul\":7670:7690   */\n      tag_171\n        /* \"#utility.yul\":7688:7689   */\n      dup4\n        /* \"#utility.yul\":7670:7690   */\n      tag_143\n      jump\t// in\n    tag_171:\n        /* \"#utility.yul\":7665:7690   */\n      swap3\n      pop\n        /* \"#utility.yul\":7824:7825   */\n      dup3\n        /* \"#utility.yul\":7756:7822   */\n      0xffffffffffffffffffffffffffffffffffffffffffffffffffffffffffffffff\n        /* \"#utility.yul\":7752:7826   */\n      sub\n        /* \"#utility.yul\":7749:7750   */\n      dup3\n        /* \"#utility.yul\":7746:7827   */\n      gt\n        /* \"#utility.yul\":7743:7850   */\n      iszero\n      tag_172\n      jumpi\n        /* \"#utility.yul\":7830:7848   */\n      tag_173\n      tag_174\n      jump\t// in\n    tag_173:\n        /* \"#utility.yul\":7743:7850   */\n    tag_172:\n        /* \"#utility.yul\":7874:7875   */\n      dup3\n        /* \"#utility.yul\":7871:7872   */\n      dup3\n        /* \"#utility.yul\":7867:7876   */\n      add\n        /* \"#utility.yul\":7860:7876   */\n      swap1\n      pop\n        /* \"#utility.yul\":7577:7882   */\n      swap3\n      swap2\n      pop\n      pop\n      jump\t// out\n        /* \"#utility.yul\":7888:8073   */\n    tag_54:\n        /* \"#utility.yul\":7928:7929   */\n      0x00\n        /* \"#utility.yul\":7945:7965   */\n      tag_176\n        /* \"#utility.yul\":7963:7964   */\n      dup3\n        /* \"#utility.yul\":7945:7965   */\n      tag_143\n      jump\t// in\n    tag_176:\n        /* \"#utility.yul\":7940:7965   */\n      swap2\n      pop\n        /* \"#utility.yul\":7979:7999   */\n      tag_177\n        /* \"#utility.yul\":7997:7998   */\n      dup4\n        /* \"#utility.yul\":7979:7999   */\n      tag_143\n      jump\t// in\n    tag_177:\n        /* \"#utility.yul\":7974:7999   */\n      swap3\n      pop\n        /* \"#utility.yul\":8018:8019   */\n      dup3\n        /* \"#utility.yul\":8008:8043   */\n      tag_178\n      jumpi\n        /* \"#utility.yul\":8023:8041   */\n      tag_179\n      tag_180\n      jump\t// in\n    tag_179:\n        /* \"#utility.yul\":8008:8043   */\n    tag_178:\n        /* \"#utility.yul\":8065:8066   */\n      dup3\n        /* \"#utility.yul\":8062:8063   */\n      dup3\n        /* \"#utility.yul\":8058:8067   */\n      div\n        /* \"#utility.yul\":8053:8067   */\n      swap1\n      pop\n        /* \"#utility.yul\":7888:8073   */\n      swap3\n      swap2\n      pop\n      pop\n      jump\t// out\n        /* \"#utility.yul\":8079:8427   */\n    tag_52:\n        /* \"#utility.yul\":8119:8126   */\n      0x00\n        /* \"#utility.yul\":8142:8162   */\n      tag_182\n        /* \"#utility.yul\":8160:8161   */\n      dup3\n        /* \"#utility.yul\":8142:8162   */\n      tag_143\n      jump\t// in\n    tag_182:\n        /* \"#utility.yul\":8137:8162   */\n      swap2\n      pop\n        /* \"#utility.yul\":8176:8196   */\n      tag_183\n        /* \"#utility.yul\":8194:8195   */\n      dup4\n        /* \"#utility.yul\":8176:8196   */\n      tag_143\n      jump\t// in\n    tag_183:\n        /* \"#utility.yul\":8171:8196   */\n      swap3\n      pop\n        /* \"#utility.yul\":8364:8365   */\n      dup2\n        /* \"#utility.yul\":8296:8362   */\n      0xffffffffffffffffffffffffffffffffffffffffffffffffffffffffffffffff\n        /* \"#utility.yul\":8292:8366   */\n      div\n        /* \"#utility.yul\":8289:8290   */\n      dup4\n        /* \"#utility.yul\":8286:8367   */\n      gt\n        /* \"#utility.yul\":8281:8282   */\n      dup3\n        /* \"#utility.yul\":8274:8283   */\n      iszero\n        /* \"#utility.yul\":8267:8284   */\n      iszero\n        /* \"#utility.yul\":8263:8368   */\n      and\n        /* \"#utility.yul\":8260:8391   */\n      iszero\n      tag_184\n      jumpi\n        /* \"#utility.yul\":8371:8389   */\n      tag_185\n      tag_174\n      jump\t// in\n    tag_185:\n        /* \"#utility.yul\":8260:8391   */\n    tag_184:\n        /* \"#utility.yul\":8419:8420   */\n      dup3\n        /* \"#utility.yul\":8416:8417   */\n      dup3\n        /* \"#utility.yul\":8412:8421   */\n      mul\n        /* \"#utility.yul\":8401:8421   */\n      swap1\n      pop\n        /* \"#utility.yul\":8079:8427   */\n      swap3\n      swap2\n      pop\n      pop\n      jump\t// out\n        /* \"#utility.yul\":8433:8529   */\n    tag_99:\n        /* \"#utility.yul\":8470:8477   */\n      0x00\n        /* \"#utility.yul\":8499:8523   */\n      tag_187\n        /* \"#utility.yul\":8517:8522   */\n      dup3\n        /* \"#utility.yul\":8499:8523   */\n      tag_188\n      jump\t// in\n    tag_187:\n        /* \"#utility.yul\":8488:8523   */\n      swap1\n      pop\n        /* \"#utility.yul\":8433:8529   */\n      swap2\n      swap1\n      pop\n      jump\t// out\n        /* \"#utility.yul\":8535:8625   */\n    tag_103:\n        /* \"#utility.yul\":8569:8576   */\n      0x00\n        /* \"#utility.yul\":8612:8617   */\n      dup2\n        /* \"#utility.yul\":8605:8618   */\n      iszero\n        /* \"#utility.yul\":8598:8619   */\n      iszero\n        /* \"#utility.yul\":8587:8619   */\n      swap1\n      pop\n        /* \"#utility.yul\":8535:8625   */\n      swap2\n      swap1\n      pop\n      jump\t// out\n        /* \"#utility.yul\":8631:8757   */\n    tag_188:\n        /* \"#utility.yul\":8668:8675   */\n      0x00\n        /* \"#utility.yul\":8708:8750   */\n      0xffffffffffffffffffffffffffffffffffffffff\n        /* \"#utility.yul\":8701:8706   */\n      dup3\n        /* \"#utility.yul\":8697:8751   */\n      and\n        /* \"#utility.yul\":8686:8751   */\n      swap1\n      pop\n        /* \"#utility.yul\":8631:8757   */\n      swap2\n      swap1\n      pop\n      jump\t// out\n        /* \"#utility.yul\":8763:8840   */\n    tag_143:\n        /* \"#utility.yul\":8800:8807   */\n      0x00\n        /* \"#utility.yul\":8829:8834   */\n      dup2\n        /* \"#utility.yul\":8818:8834   */\n      swap1\n      pop\n        /* \"#utility.yul\":8763:8840   */\n      swap2\n      swap1\n      pop\n      jump\t// out\n        /* \"#utility.yul\":8846:9026   */\n    tag_174:\n        /* \"#utility.yul\":8894:8971   */\n      0x4e487b7100000000000000000000000000000000000000000000000000000000\n        /* \"#utility.yul\":8891:8892   */\n      0x00\n        /* \"#utility.yul\":8884:8972   */\n      mstore\n        /* \"#utility.yul\":8991:8995   */\n      0x11\n        /* \"#utility.yul\":8988:8989   */\n      0x04\n        /* \"#utility.yul\":8981:8996   */\n      mstore\n        /* \"#utility.yul\":9015:9019   */\n      0x24\n        /* \"#utility.yul\":9012:9013   */\n      0x00\n        /* \"#utility.yul\":9005:9020   */\n      revert\n        /* \"#utility.yul\":9032:9212   */\n    tag_180:\n        /* \"#utility.yul\":9080:9157   */\n      0x4e487b7100000000000000000000000000000000000000000000000000000000\n        /* \"#utility.yul\":9077:9078   */\n      0x00\n        /* \"#utility.yul\":9070:9158   */\n      mstore\n        /* \"#utility.yul\":9177:9181   */\n      0x12\n        /* \"#utility.yul\":9174:9175   */\n      0x04\n        /* \"#utility.yul\":9167:9182   */\n      mstore\n        /* \"#utility.yul\":9201:9205   */\n      0x24\n        /* \"#utility.yul\":9198:9199   */\n      0x00\n        /* \"#utility.yul\":9191:9206   */\n      revert\n        /* \"#utility.yul\":9341:9458   */\n    tag_94:\n        /* \"#utility.yul\":9450:9451   */\n      0x00\n        /* \"#utility.yul\":9447:9448   */\n      dup1\n        /* \"#utility.yul\":9440:9452   */\n      revert\n        /* \"#utility.yul\":9464:9638   */\n    tag_109:\n        /* \"#utility.yul\":9604:9630   */\n      0x4e6f7420656e6f75676820746f207265706179206c6f616e0000000000000000\n        /* \"#utility.yul\":9600:9601   */\n      0x00\n        /* \"#utility.yul\":9592:9598   */\n      dup3\n        /* \"#utility.yul\":9588:9602   */\n      add\n        /* \"#utility.yul\":9581:9631   */\n      mstore\n        /* \"#utility.yul\":9464:9638   */\n      pop\n      jump\t// out\n        /* \"#utility.yul\":9644:9813   */\n    tag_114:\n        /* \"#utility.yul\":9784:9805   */\n      0x4c6f616e206e6f74207265706169642079657400000000000000000000000000\n        /* \"#utility.yul\":9780:9781   */\n      0x00\n        /* \"#utility.yul\":9772:9778   */\n      dup3\n        /* \"#utility.yul\":9768:9782   */\n      add\n        /* \"#utility.yul\":9761:9806   */\n      mstore\n        /* \"#utility.yul\":9644:9813   */\n      pop\n      jump\t// out\n        /* \"#utility.yul\":9819:9983   */\n    tag_119:\n        /* \"#utility.yul\":9959:9975   */\n      0x416c726561647920726570616964000000000000000000000000000000000000\n        /* \"#utility.yul\":9955:9956   */\n      0x00\n        /* \"#utility.yul\":9947:9953   */\n      dup3\n        /* \"#utility.yul\":9943:9957   */\n      add\n        /* \"#utility.yul\":9936:9976   */\n      mstore\n        /* \"#utility.yul\":9819:9983   */\n      pop\n      jump\t// out\n        /* \"#utility.yul\":9989:10164   */\n    tag_124:\n        /* \"#utility.yul\":10129:10156   */\n      0x4e6f20636f6c6c61746572616c20746f20776974686472617700000000000000\n        /* \"#utility.yul\":10125:10126   */\n      0x00\n        /* \"#utility.yul\":10117:10123   */\n      dup3\n        /* \"#utility.yul\":10113:10127   */\n      add\n        /* \"#utility.yul\":10106:10157   */\n      mstore\n        /* \"#utility.yul\":9989:10164   */\n      pop\n      jump\t// out\n        /* \"#utility.yul\":10170:10340   */\n    tag_129:\n        /* \"#utility.yul\":10310:10332   */\n      0x4e6f7420656e6f756768206c6971756964697479000000000000000000000000\n        /* \"#utility.yul\":10306:10307   */\n      0x00\n        /* \"#utility.yul\":10298:10304   */\n      dup3\n        /* \"#utility.yul\":10294:10308   */\n      add\n        /* \"#utility.yul\":10287:10333   */\n      mstore\n        /* \"#utility.yul\":10170:10340   */\n      pop\n      jump\t// out\n        /* \"#utility.yul\":10346:10519   */\n    tag_134:\n        /* \"#utility.yul\":10486:10511   */\n      0x4d7573742070726f7669646520636f6c6c61746572616c000000000000000000\n        /* \"#utility.yul\":10482:10483   */\n      0x00\n        /* \"#utility.yul\":10474:10480   */\n      dup3\n        /* \"#utility.yul\":10470:10484   */\n      add\n        /* \"#utility.yul\":10463:10512   */\n      mstore\n        /* \"#utility.yul\":10346:10519   */\n      pop\n      jump\t// out\n        /* \"#utility.yul\":10525:10699   */\n    tag_139:\n        /* \"#utility.yul\":10665:10691   */\n      0x4d757374206465706f736974206d6f7265207468616e20300000000000000000\n        /* \"#utility.yul\":10661:10662   */\n      0x00\n        /* \"#utility.yul\":10653:10659   */\n      dup3\n        /* \"#utility.yul\":10649:10663   */\n      add\n        /* \"#utility.yul\":10642:10692   */\n      mstore\n        /* \"#utility.yul\":10525:10699   */\n      pop\n      jump\t// out\n        /* \"#utility.yul\":10705:10827   */\n    tag_90:\n        /* \"#utility.yul\":10778:10802   */\n      tag_205\n        /* \"#utility.yul\":10796:10801   */\n      dup2\n        /* \"#utility.yul\":10778:10802   */\n      tag_99\n      jump\t// in\n    tag_205:\n        /* \"#utility.yul\":10771:10776   */\n      dup2\n        /* \"#utility.yul\":10768:10803   */\n      eq\n        /* \"#utility.yul\":10758:10821   */\n      tag_206\n      jumpi\n        /* \"#utility.yul\":10817:10818   */\n      0x00\n        /* \"#utility.yul\":10814:10815   */\n      dup1\n        /* \"#utility.yul\":10807:10819   */\n      revert\n        /* \"#utility.yul\":10758:10821   */\n    tag_206:\n        /* \"#utility.yul\":10705:10827   */\n      pop\n      jump\t// out\n\n    auxdata: 0xa26469706673582212201a84da53c43b1e41c724d78c15ce20115d283f65a934253e93199b69c6704c4064736f6c63430008070033\n}\n",
				"bytecode": {
					"linkReferences": {},
					"object": "6080604052600a60015534801561001557600080fd5b50336000806101000a81548173ffffffffffffffffffffffffffffffffffffffff021916908373ffffffffffffffffffffffffffffffffffffffff160217905550610c77806100656000396000f3fe6080604052600436106100865760003560e01c80638da5cb5b116100595780638da5cb5b14610102578063a27a944d1461012d578063bf00a7691461016a578063d0e30db0146101a9578063e68d3569146101b357610086565b8063402d88831461008b57806359c153be146100955780636f9fb98a146100ac5780637c3a00fd146100d7575b600080fd5b6100936101bd565b005b3480156100a157600080fd5b506100aa6102e7565b005b3480156100b857600080fd5b506100c1610420565b6040516100ce919061091c565b60405180910390f35b3480156100e357600080fd5b506100ec610428565b6040516100f9919061091c565b60405180910390f35b34801561010e57600080fd5b5061011761042e565b6040516101249190610821565b60405180910390f35b34801561013957600080fd5b50610154600480360381019061014f91906106d2565b610452565b604051610161919061091c565b60405180910390f35b34801561017657600080fd5b50610191600480360381019061018c91906106d2565b61046a565b6040516101a093929190610937565b60405180910390f35b6101b16104a1565b005b6101bb61053c565b005b6000600360003373ffffffffffffffffffffffffffffffffffffffff1673ffffffffffffffffffffffffffffffffffffffff16815260200190815260200160002090508060020160009054906101000a900460ff1615610252576040517f08c379a00000000000000000000000000000000000000000000000000000000081526004016102499061087c565b60405180910390fd5b6000606460015483600101546102689190610a06565b61027291906109d5565b8260010154610281919061097f565b9050803410156102c6576040517f08c379a00000000000000000000000000000000000000000000000000000000081526004016102bd9061083c565b60405180910390fd5b60018260020160006101000a81548160ff0219169083151502179055505050565b6000600360003373ffffffffffffffffffffffffffffffffffffffff1673ffffffffffffffffffffffffffffffffffffffff16815260200190815260200160002090508060020160009054906101000a900460ff1661037b576040517f08c379a00000000000000000000000000000000000000000000000000000000081526004016103729061085c565b60405180910390fd5b60008160000154116103c2576040517f08c379a00000000000000000000000000000000000000000000000000000000081526004016103b99061089c565b60405180910390fd5b600081600001549050600082600001819055503373ffffffffffffffffffffffffffffffffffffffff166108fc829081150290604051600060405180830381858888f1935050505015801561041b573d6000803e3d6000fd5b505050565b600047905090565b60015481565b60008054906101000a900473ffffffffffffffffffffffffffffffffffffffff1681565b60026020528060005260406000206000915090505481565b60036020528060005260406000206000915090508060000154908060010154908060020160009054906101000a900460ff16905083565b600034116104e4576040517f08c379a00000000000000000000000000000000000000000000000000000000081526004016104db906108fc565b60405180910390fd5b34600260003373ffffffffffffffffffffffffffffffffffffffff1673ffffffffffffffffffffffffffffffffffffffff1681526020019081526020016000206000828254610533919061097f565b92505081905550565b6000341161057f576040517f08c379a0000000000000000000000000000000000000000000000000000000008152600401610576906108dc565b60405180910390fd5b60023461058c91906109d5565b4710156105ce576040517f08c379a00000000000000000000000000000000000000000000000000000000081526004016105c5906108bc565b60405180910390fd5b60006002346105dd91906109d5565b9050604051806060016040528034815260200182815260200160001515815250600360003373ffffffffffffffffffffffffffffffffffffffff1673ffffffffffffffffffffffffffffffffffffffff168152602001908152602001600020600082015181600001556020820151816001015560408201518160020160006101000a81548160ff0219169083151502179055509050503373ffffffffffffffffffffffffffffffffffffffff166108fc829081150290604051600060405180830381858888f193505050501580156106b9573d6000803e3d6000fd5b5050565b6000813590506106cc81610c2a565b92915050565b6000602082840312156106e8576106e7610b06565b5b60006106f6848285016106bd565b91505092915050565b61070881610a60565b82525050565b61071781610a72565b82525050565b600061072a60188361096e565b915061073582610b0b565b602082019050919050565b600061074d60138361096e565b915061075882610b34565b602082019050919050565b6000610770600e8361096e565b915061077b82610b5d565b602082019050919050565b600061079360198361096e565b915061079e82610b86565b602082019050919050565b60006107b660148361096e565b91506107c182610baf565b602082019050919050565b60006107d960178361096e565b91506107e482610bd8565b602082019050919050565b60006107fc60188361096e565b915061080782610c01565b602082019050919050565b61081b81610a9e565b82525050565b600060208201905061083660008301846106ff565b92915050565b600060208201905081810360008301526108558161071d565b9050919050565b6000602082019050818103600083015261087581610740565b9050919050565b6000602082019050818103600083015261089581610763565b9050919050565b600060208201905081810360008301526108b581610786565b9050919050565b600060208201905081810360008301526108d5816107a9565b9050919050565b600060208201905081810360008301526108f5816107cc565b9050919050565b60006020820190508181036000830152610915816107ef565b9050919050565b60006020820190506109316000830184610812565b92915050565b600060608201905061094c6000830186610812565b6109596020830185610812565b610966604083018461070e565b949350505050565b600082825260208201905092915050565b600061098a82610a9e565b915061099583610a9e565b9250827fffffffffffffffffffffffffffffffffffffffffffffffffffffffffffffffff038211156109ca576109c9610aa8565b5b828201905092915050565b60006109e082610a9e565b91506109eb83610a9e565b9250826109fb576109fa610ad7565b5b828204905092915050565b6000610a1182610a9e565b9150610a1c83610a9e565b9250817fffffffffffffffffffffffffffffffffffffffffffffffffffffffffffffffff0483118215151615610a5557610a54610aa8565b5b828202905092915050565b6000610a6b82610a7e565b9050919050565b60008115159050919050565b600073ffffffffffffffffffffffffffffffffffffffff82169050919050565b6000819050919050565b7f4e487b7100000000000000000000000000000000000000000000000000000000600052601160045260246000fd5b7f4e487b7100000000000000000000000000000000000000000000000000000000600052601260045260246000fd5b600080fd5b7f4e6f7420656e6f75676820746f207265706179206c6f616e0000000000000000600082015250565b7f4c6f616e206e6f74207265706169642079657400000000000000000000000000600082015250565b7f416c726561647920726570616964000000000000000000000000000000000000600082015250565b7f4e6f20636f6c6c61746572616c20746f20776974686472617700000000000000600082015250565b7f4e6f7420656e6f756768206c6971756964697479000000000000000000000000600082015250565b7f4d7573742070726f7669646520636f6c6c61746572616c000000000000000000600082015250565b7f4d757374206465706f736974206d6f7265207468616e20300000000000000000600082015250565b610c3381610a60565b8114610c3e57600080fd5b5056fea26469706673582212201a84da53c43b1e41c724d78c15ce20115d283f65a934253e93199b69c6704c4064736f6c63430008070033",
					"opcodes": "PUSH1 0x80 PUSH1 0x40 MSTORE PUSH1 0xA PUSH1 0x1 SSTORE CALLVALUE DUP1 ISZERO PUSH2 0x15 JUMPI PUSH1 0x0 DUP1 REVERT JUMPDEST POP CALLER PUSH1 0x0 DUP1 PUSH2 0x100 EXP DUP2 SLOAD DUP2 PUSH20 0xFFFFFFFFFFFFFFFFFFFFFFFFFFFFFFFFFFFFFFFF MUL NOT AND SWAP1 DUP4 PUSH20 0xFFFFFFFFFFFFFFFFFFFFFFFFFFFFFFFFFFFFFFFF AND MUL OR SWAP1 SSTORE POP PUSH2 0xC77 DUP1 PUSH2 0x65 PUSH1 0x0 CODECOPY PUSH1 0x0 RETURN INVALID PUSH1 0x80 PUSH1 0x40 MSTORE PUSH1 0x4 CALLDATASIZE LT PUSH2 0x86 JUMPI PUSH1 0x0 CALLDATALOAD PUSH1 0xE0 SHR DUP1 PUSH4 0x8DA5CB5B GT PUSH2 0x59 JUMPI DUP1 PUSH4 0x8DA5CB5B EQ PUSH2 0x102 JUMPI DUP1 PUSH4 0xA27A944D EQ PUSH2 0x12D JUMPI DUP1 PUSH4 0xBF00A769 EQ PUSH2 0x16A JUMPI DUP1 PUSH4 0xD0E30DB0 EQ PUSH2 0x1A9 JUMPI DUP1 PUSH4 0xE68D3569 EQ PUSH2 0x1B3 JUMPI PUSH2 0x86 JUMP JUMPDEST DUP1 PUSH4 0x402D8883 EQ PUSH2 0x8B JUMPI DUP1 PUSH4 0x59C153BE EQ PUSH2 0x95 JUMPI DUP1 PUSH4 0x6F9FB98A EQ PUSH2 0xAC JUMPI DUP1 PUSH4 0x7C3A00FD EQ PUSH2 0xD7 JUMPI JUMPDEST PUSH1 0x0 DUP1 REVERT JUMPDEST PUSH2 0x93 PUSH2 0x1BD JUMP JUMPDEST STOP JUMPDEST CALLVALUE DUP1 ISZERO PUSH2 0xA1 JUMPI PUSH1 0x0 DUP1 REVERT JUMPDEST POP PUSH2 0xAA PUSH2 0x2E7 JUMP JUMPDEST STOP JUMPDEST CALLVALUE DUP1 ISZERO PUSH2 0xB8 JUMPI PUSH1 0x0 DUP1 REVERT JUMPDEST POP PUSH2 0xC1 PUSH2 0x420 JUMP JUMPDEST PUSH1 0x40 MLOAD PUSH2 0xCE SWAP2 SWAP1 PUSH2 0x91C JUMP JUMPDEST PUSH1 0x40 MLOAD DUP1 SWAP2 SUB SWAP1 RETURN JUMPDEST CALLVALUE DUP1 ISZERO PUSH2 0xE3 JUMPI PUSH1 0x0 DUP1 REVERT JUMPDEST POP PUSH2 0xEC PUSH2 0x428 JUMP JUMPDEST PUSH1 0x40 MLOAD PUSH2 0xF9 SWAP2 SWAP1 PUSH2 0x91C JUMP JUMPDEST PUSH1 0x40 MLOAD DUP1 SWAP2 SUB SWAP1 RETURN JUMPDEST CALLVALUE DUP1 ISZERO PUSH2 0x10E JUMPI PUSH1 0x0 DUP1 REVERT JUMPDEST POP PUSH2 0x117 PUSH2 0x42E JUMP JUMPDEST PUSH1 0x40 MLOAD PUSH2 0x124 SWAP2 SWAP1 PUSH2 0x821 JUMP JUMPDEST PUSH1 0x40 MLOAD DUP1 SWAP2 SUB SWAP1 RETURN JUMPDEST CALLVALUE DUP1 ISZERO PUSH2 0x139 JUMPI PUSH1 0x0 DUP1 REVERT JUMPDEST POP PUSH2 0x154 PUSH1 0x4 DUP1 CALLDATASIZE SUB DUP2 ADD SWAP1 PUSH2 0x14F SWAP2 SWAP1 PUSH2 0x6D2 JUMP JUMPDEST PUSH2 0x452 JUMP JUMPDEST PUSH1 0x40 MLOAD PUSH2 0x161 SWAP2 SWAP1 PUSH2 0x91C JUMP JUMPDEST PUSH1 0x40 MLOAD DUP1 SWAP2 SUB SWAP1 RETURN JUMPDEST CALLVALUE DUP1 ISZERO PUSH2 0x176 JUMPI PUSH1 0x0 DUP1 REVERT JUMPDEST POP PUSH2 0x191 PUSH1 0x4 DUP1 CALLDATASIZE SUB DUP2 ADD SWAP1 PUSH2 0x18C SWAP2 SWAP1 PUSH2 0x6D2 JUMP JUMPDEST PUSH2 0x46A JUMP JUMPDEST PUSH1 0x40 MLOAD PUSH2 0x1A0 SWAP4 SWAP3 SWAP2 SWAP1 PUSH2 0x937 JUMP JUMPDEST PUSH1 0x40 MLOAD DUP1 SWAP2 SUB SWAP1 RETURN JUMPDEST PUSH2 0x1B1 PUSH2 0x4A1 JUMP JUMPDEST STOP JUMPDEST PUSH2 0x1BB PUSH2 0x53C JUMP JUMPDEST STOP JUMPDEST PUSH1 0x0 PUSH1 0x3 PUSH1 0x0 CALLER PUSH20 0xFFFFFFFFFFFFFFFFFFFFFFFFFFFFFFFFFFFFFFFF AND PUSH20 0xFFFFFFFFFFFFFFFFFFFFFFFFFFFFFFFFFFFFFFFF AND DUP2 MSTORE PUSH1 0x20 ADD SWAP1 DUP2 MSTORE PUSH1 0x20 ADD PUSH1 0x0 KECCAK256 SWAP1 POP DUP1 PUSH1 0x2 ADD PUSH1 0x0 SWAP1 SLOAD SWAP1 PUSH2 0x100 EXP SWAP1 DIV PUSH1 0xFF AND ISZERO PUSH2 0x252 JUMPI PUSH1 0x40 MLOAD PUSH32 0x8C379A000000000000000000000000000000000000000000000000000000000 DUP2 MSTORE PUSH1 0x4 ADD PUSH2 0x249 SWAP1 PUSH2 0x87C JUMP JUMPDEST PUSH1 0x40 MLOAD DUP1 SWAP2 SUB SWAP1 REVERT JUMPDEST PUSH1 0x0 PUSH1 0x64 PUSH1 0x1 SLOAD DUP4 PUSH1 0x1 ADD SLOAD PUSH2 0x268 SWAP2 SWAP1 PUSH2 0xA06 JUMP JUMPDEST PUSH2 0x272 SWAP2 SWAP1 PUSH2 0x9D5 JUMP JUMPDEST DUP3 PUSH1 0x1 ADD SLOAD PUSH2 0x281 SWAP2 SWAP1 PUSH2 0x97F JUMP JUMPDEST SWAP1 POP DUP1 CALLVALUE LT ISZERO PUSH2 0x2C6 JUMPI PUSH1 0x40 MLOAD PUSH32 0x8C379A000000000000000000000000000000000000000000000000000000000 DUP2 MSTORE PUSH1 0x4 ADD PUSH2 0x2BD SWAP1 PUSH2 0x83C JUMP JUMPDEST PUSH1 0x40 MLOAD DUP1 SWAP2 SUB SWAP1 REVERT JUMPDEST PUSH1 0x1 DUP3 PUSH1 0x2 ADD PUSH1 0x0 PUSH2 0x100 EXP DUP2 SLOAD DUP2 PUSH1 0xFF MUL NOT AND SWAP1 DUP4 ISZERO ISZERO MUL OR SWAP1 SSTORE POP POP POP JUMP JUMPDEST PUSH1 0x0 PUSH1 0x3 PUSH1 0x0 CALLER PUSH20 0xFFFFFFFFFFFFFFFFFFFFFFFFFFFFFFFFFFFFFFFF AND PUSH20 0xFFFFFFFFFFFFFFFFFFFFFFFFFFFFFFFFFFFFFFFF AND DUP2 MSTORE PUSH1 0x20 ADD SWAP1 DUP2 MSTORE PUSH1 0x20 ADD PUSH1 0x0 KECCAK256 SWAP1 POP DUP1 PUSH1 0x2 ADD PUSH1 0x0 SWAP1 SLOAD SWAP1 PUSH2 0x100 EXP SWAP1 DIV PUSH1 0xFF AND PUSH2 0x37B JUMPI PUSH1 0x40 MLOAD PUSH32 0x8C379A000000000000000000000000000000000000000000000000000000000 DUP2 MSTORE PUSH1 0x4 ADD PUSH2 0x372 SWAP1 PUSH2 0x85C JUMP JUMPDEST PUSH1 0x40 MLOAD DUP1 SWAP2 SUB SWAP1 REVERT JUMPDEST PUSH1 0x0 DUP2 PUSH1 0x0 ADD SLOAD GT PUSH2 0x3C2 JUMPI PUSH1 0x40 MLOAD PUSH32 0x8C379A000000000000000000000000000000000000000000000000000000000 DUP2 MSTORE PUSH1 0x4 ADD PUSH2 0x3B9 SWAP1 PUSH2 0x89C JUMP JUMPDEST PUSH1 0x40 MLOAD DUP1 SWAP2 SUB SWAP1 REVERT JUMPDEST PUSH1 0x0 DUP2 PUSH1 0x0 ADD SLOAD SWAP1 POP PUSH1 0x0 DUP3 PUSH1 0x0 ADD DUP2 SWAP1 SSTORE POP CALLER PUSH20 0xFFFFFFFFFFFFFFFFFFFFFFFFFFFFFFFFFFFFFFFF AND PUSH2 0x8FC DUP3 SWAP1 DUP2 ISZERO MUL SWAP1 PUSH1 0x40 MLOAD PUSH1 0x0 PUSH1 0x40 MLOAD DUP1 DUP4 SUB DUP2 DUP6 DUP9 DUP9 CALL SWAP4 POP POP POP POP ISZERO DUP1 ISZERO PUSH2 0x41B JUMPI RETURNDATASIZE PUSH1 0x0 DUP1 RETURNDATACOPY RETURNDATASIZE PUSH1 0x0 REVERT JUMPDEST POP POP POP JUMP JUMPDEST PUSH1 0x0 SELFBALANCE SWAP1 POP SWAP1 JUMP JUMPDEST PUSH1 0x1 SLOAD DUP2 JUMP JUMPDEST PUSH1 0x0 DUP1 SLOAD SWAP1 PUSH2 0x100 EXP SWAP1 DIV PUSH20 0xFFFFFFFFFFFFFFFFFFFFFFFFFFFFFFFFFFFFFFFF AND DUP2 JUMP JUMPDEST PUSH1 0x2 PUSH1 0x20 MSTORE DUP1 PUSH1 0x0 MSTORE PUSH1 0x40 PUSH1 0x0 KECCAK256 PUSH1 0x0 SWAP2 POP SWAP1 POP SLOAD DUP2 JUMP JUMPDEST PUSH1 0x3 PUSH1 0x20 MSTORE DUP1 PUSH1 0x0 MSTORE PUSH1 0x40 PUSH1 0x0 KECCAK256 PUSH1 0x0 SWAP2 POP SWAP1 POP DUP1 PUSH1 0x0 ADD SLOAD SWAP1 DUP1 PUSH1 0x1 ADD SLOAD SWAP1 DUP1 PUSH1 0x2 ADD PUSH1 0x0 SWAP1 SLOAD SWAP1 PUSH2 0x100 EXP SWAP1 DIV PUSH1 0xFF AND SWAP1 POP DUP4 JUMP JUMPDEST PUSH1 0x0 CALLVALUE GT PUSH2 0x4E4 JUMPI PUSH1 0x40 MLOAD PUSH32 0x8C379A000000000000000000000000000000000000000000000000000000000 DUP2 MSTORE PUSH1 0x4 ADD PUSH2 0x4DB SWAP1 PUSH2 0x8FC JUMP JUMPDEST PUSH1 0x40 MLOAD DUP1 SWAP2 SUB SWAP1 REVERT JUMPDEST CALLVALUE PUSH1 0x2 PUSH1 0x0 CALLER PUSH20 0xFFFFFFFFFFFFFFFFFFFFFFFFFFFFFFFFFFFFFFFF AND PUSH20 0xFFFFFFFFFFFFFFFFFFFFFFFFFFFFFFFFFFFFFFFF AND DUP2 MSTORE PUSH1 0x20 ADD SWAP1 DUP2 MSTORE PUSH1 0x20 ADD PUSH1 0x0 KECCAK256 PUSH1 0x0 DUP3 DUP3 SLOAD PUSH2 0x533 SWAP2 SWAP1 PUSH2 0x97F JUMP JUMPDEST SWAP3 POP POP DUP2 SWAP1 SSTORE POP JUMP JUMPDEST PUSH1 0x0 CALLVALUE GT PUSH2 0x57F JUMPI PUSH1 0x40 MLOAD PUSH32 0x8C379A000000000000000000000000000000000000000000000000000000000 DUP2 MSTORE PUSH1 0x4 ADD PUSH2 0x576 SWAP1 PUSH2 0x8DC JUMP JUMPDEST PUSH1 0x40 MLOAD DUP1 SWAP2 SUB SWAP1 REVERT JUMPDEST PUSH1 0x2 CALLVALUE PUSH2 0x58C SWAP2 SWAP1 PUSH2 0x9D5 JUMP JUMPDEST SELFBALANCE LT ISZERO PUSH2 0x5CE JUMPI PUSH1 0x40 MLOAD PUSH32 0x8C379A000000000000000000000000000000000000000000000000000000000 DUP2 MSTORE PUSH1 0x4 ADD PUSH2 0x5C5 SWAP1 PUSH2 0x8BC JUMP JUMPDEST PUSH1 0x40 MLOAD DUP1 SWAP2 SUB SWAP1 REVERT JUMPDEST PUSH1 0x0 PUSH1 0x2 CALLVALUE PUSH2 0x5DD SWAP2 SWAP1 PUSH2 0x9D5 JUMP JUMPDEST SWAP1 POP PUSH1 0x40 MLOAD DUP1 PUSH1 0x60 ADD PUSH1 0x40 MSTORE DUP1 CALLVALUE DUP2 MSTORE PUSH1 0x20 ADD DUP3 DUP2 MSTORE PUSH1 0x20 ADD PUSH1 0x0 ISZERO ISZERO DUP2 MSTORE POP PUSH1 0x3 PUSH1 0x0 CALLER PUSH20 0xFFFFFFFFFFFFFFFFFFFFFFFFFFFFFFFFFFFFFFFF AND PUSH20 0xFFFFFFFFFFFFFFFFFFFFFFFFFFFFFFFFFFFFFFFF AND DUP2 MSTORE PUSH1 0x20 ADD SWAP1 DUP2 MSTORE PUSH1 0x20 ADD PUSH1 0x0 KECCAK256 PUSH1 0x0 DUP3 ADD MLOAD DUP2 PUSH1 0x0 ADD SSTORE PUSH1 0x20 DUP3 ADD MLOAD DUP2 PUSH1 0x1 ADD SSTORE PUSH1 0x40 DUP3 ADD MLOAD DUP2 PUSH1 0x2 ADD PUSH1 0x0 PUSH2 0x100 EXP DUP2 SLOAD DUP2 PUSH1 0xFF MUL NOT AND SWAP1 DUP4 ISZERO ISZERO MUL OR SWAP1 SSTORE POP SWAP1 POP POP CALLER PUSH20 0xFFFFFFFFFFFFFFFFFFFFFFFFFFFFFFFFFFFFFFFF AND PUSH2 0x8FC DUP3 SWAP1 DUP2 ISZERO MUL SWAP1 PUSH1 0x40 MLOAD PUSH1 0x0 PUSH1 0x40 MLOAD DUP1 DUP4 SUB DUP2 DUP6 DUP9 DUP9 CALL SWAP4 POP POP POP POP ISZERO DUP1 ISZERO PUSH2 0x6B9 JUMPI RETURNDATASIZE PUSH1 0x0 DUP1 RETURNDATACOPY RETURNDATASIZE PUSH1 0x0 REVERT JUMPDEST POP POP JUMP JUMPDEST PUSH1 0x0 DUP2 CALLDATALOAD SWAP1 POP PUSH2 0x6CC DUP2 PUSH2 0xC2A JUMP JUMPDEST SWAP3 SWAP2 POP POP JUMP JUMPDEST PUSH1 0x0 PUSH1 0x20 DUP3 DUP5 SUB SLT ISZERO PUSH2 0x6E8 JUMPI PUSH2 0x6E7 PUSH2 0xB06 JUMP JUMPDEST JUMPDEST PUSH1 0x0 PUSH2 0x6F6 DUP5 DUP3 DUP6 ADD PUSH2 0x6BD JUMP JUMPDEST SWAP2 POP POP SWAP3 SWAP2 POP POP JUMP JUMPDEST PUSH2 0x708 DUP2 PUSH2 0xA60 JUMP JUMPDEST DUP3 MSTORE POP POP JUMP JUMPDEST PUSH2 0x717 DUP2 PUSH2 0xA72 JUMP JUMPDEST DUP3 MSTORE POP POP JUMP JUMPDEST PUSH1 0x0 PUSH2 0x72A PUSH1 0x18 DUP4 PUSH2 0x96E JUMP JUMPDEST SWAP2 POP PUSH2 0x735 DUP3 PUSH2 0xB0B JUMP JUMPDEST PUSH1 0x20 DUP3 ADD SWAP1 POP SWAP2 SWAP1 POP JUMP JUMPDEST PUSH1 0x0 PUSH2 0x74D PUSH1 0x13 DUP4 PUSH2 0x96E JUMP JUMPDEST SWAP2 POP PUSH2 0x758 DUP3 PUSH2 0xB34 JUMP JUMPDEST PUSH1 0x20 DUP3 ADD SWAP1 POP SWAP2 SWAP1 POP JUMP JUMPDEST PUSH1 0x0 PUSH2 0x770 PUSH1 0xE DUP4 PUSH2 0x96E JUMP JUMPDEST SWAP2 POP PUSH2 0x77B DUP3 PUSH2 0xB5D JUMP JUMPDEST PUSH1 0x20 DUP3 ADD SWAP1 POP SWAP2 SWAP1 POP JUMP JUMPDEST PUSH1 0x0 PUSH2 0x793 PUSH1 0x19 DUP4 PUSH2 0x96E JUMP JUMPDEST SWAP2 POP PUSH2 0x79E DUP3 PUSH2 0xB86 JUMP JUMPDEST PUSH1 0x20 DUP3 ADD SWAP1 POP SWAP2 SWAP1 POP JUMP JUMPDEST PUSH1 0x0 PUSH2 0x7B6 PUSH1 0x14 DUP4 PUSH2 0x96E JUMP JUMPDEST SWAP2 POP PUSH2 0x7C1 DUP3 PUSH2 0xBAF JUMP JUMPDEST PUSH1 0x20 DUP3 ADD SWAP1 POP SWAP2 SWAP1 POP JUMP JUMPDEST PUSH1 0x0 PUSH2 0x7D9 PUSH1 0x17 DUP4 PUSH2 0x96E JUMP JUMPDEST SWAP2 POP PUSH2 0x7E4 DUP3 PUSH2 0xBD8 JUMP JUMPDEST PUSH1 0x20 DUP3 ADD SWAP1 POP SWAP2 SWAP1 POP JUMP JUMPDEST PUSH1 0x0 PUSH2 0x7FC PUSH1 0x18 DUP4 PUSH2 0x96E JUMP JUMPDEST SWAP2 POP PUSH2 0x807 DUP3 PUSH2 0xC01 JUMP JUMPDEST PUSH1 0x20 DUP3 ADD SWAP1 POP SWAP2 SWAP1 POP JUMP JUMPDEST PUSH2 0x81B DUP2 PUSH2 0xA9E JUMP JUMPDEST DUP3 MSTORE POP POP JUMP JUMPDEST PUSH1 0x0 PUSH1 0x20 DUP3 ADD SWAP1 POP PUSH2 0x836 PUSH1 0x0 DUP4 ADD DUP5 PUSH2 0x6FF JUMP JUMPDEST SWAP3 SWAP2 POP POP JUMP JUMPDEST PUSH1 0x0 PUSH1 0x20 DUP3 ADD SWAP1 POP DUP2 DUP2 SUB PUSH1 0x0 DUP4 ADD MSTORE PUSH2 0x855 DUP2 PUSH2 0x71D JUMP JUMPDEST SWAP1 POP SWAP2 SWAP1 POP JUMP JUMPDEST PUSH1 0x0 PUSH1 0x20 DUP3 ADD SWAP1 POP DUP2 DUP2 SUB PUSH1 0x0 DUP4 ADD MSTORE PUSH2 0x875 DUP2 PUSH2 0x740 JUMP JUMPDEST SWAP1 POP SWAP2 SWAP1 POP JUMP JUMPDEST PUSH1 0x0 PUSH1 0x20 DUP3 ADD SWAP1 POP DUP2 DUP2 SUB PUSH1 0x0 DUP4 ADD MSTORE PUSH2 0x895 DUP2 PUSH2 0x763 JUMP JUMPDEST SWAP1 POP SWAP2 SWAP1 POP JUMP JUMPDEST PUSH1 0x0 PUSH1 0x20 DUP3 ADD SWAP1 POP DUP2 DUP2 SUB PUSH1 0x0 DUP4 ADD MSTORE PUSH2 0x8B5 DUP2 PUSH2 0x786 JUMP JUMPDEST SWAP1 POP SWAP2 SWAP1 POP JUMP JUMPDEST PUSH1 0x0 PUSH1 0x20 DUP3 ADD SWAP1 POP DUP2 DUP2 SUB PUSH1 0x0 DUP4 ADD MSTORE PUSH2 0x8D5 DUP2 PUSH2 0x7A9 JUMP JUMPDEST SWAP1 POP SWAP2 SWAP1 POP JUMP JUMPDEST PUSH1 0x0 PUSH1 0x20 DUP3 ADD SWAP1 POP DUP2 DUP2 SUB PUSH1 0x0 DUP4 ADD MSTORE PUSH2 0x8F5 DUP2 PUSH2 0x7CC JUMP JUMPDEST SWAP1 POP SWAP2 SWAP1 POP JUMP JUMPDEST PUSH1 0x0 PUSH1 0x20 DUP3 ADD SWAP1 POP DUP2 DUP2 SUB PUSH1 0x0 DUP4 ADD MSTORE PUSH2 0x915 DUP2 PUSH2 0x7EF JUMP JUMPDEST SWAP1 POP SWAP2 SWAP1 POP JUMP JUMPDEST PUSH1 0x0 PUSH1 0x20 DUP3 ADD SWAP1 POP PUSH2 0x931 PUSH1 0x0 DUP4 ADD DUP5 PUSH2 0x812 JUMP JUMPDEST SWAP3 SWAP2 POP POP JUMP JUMPDEST PUSH1 0x0 PUSH1 0x60 DUP3 ADD SWAP1 POP PUSH2 0x94C PUSH1 0x0 DUP4 ADD DUP7 PUSH2 0x812 JUMP JUMPDEST PUSH2 0x959 PUSH1 0x20 DUP4 ADD DUP6 PUSH2 0x812 JUMP JUMPDEST PUSH2 0x966 PUSH1 0x40 DUP4 ADD DUP5 PUSH2 0x70E JUMP JUMPDEST SWAP5 SWAP4 POP POP POP POP JUMP JUMPDEST PUSH1 0x0 DUP3 DUP3 MSTORE PUSH1 0x20 DUP3 ADD SWAP1 POP SWAP3 SWAP2 POP POP JUMP JUMPDEST PUSH1 0x0 PUSH2 0x98A DUP3 PUSH2 0xA9E JUMP JUMPDEST SWAP2 POP PUSH2 0x995 DUP4 PUSH2 0xA9E JUMP JUMPDEST SWAP3 POP DUP3 PUSH32 0xFFFFFFFFFFFFFFFFFFFFFFFFFFFFFFFFFFFFFFFFFFFFFFFFFFFFFFFFFFFFFFFF SUB DUP3 GT ISZERO PUSH2 0x9CA JUMPI PUSH2 0x9C9 PUSH2 0xAA8 JUMP JUMPDEST JUMPDEST DUP3 DUP3 ADD SWAP1 POP SWAP3 SWAP2 POP POP JUMP JUMPDEST PUSH1 0x0 PUSH2 0x9E0 DUP3 PUSH2 0xA9E JUMP JUMPDEST SWAP2 POP PUSH2 0x9EB DUP4 PUSH2 0xA9E JUMP JUMPDEST SWAP3 POP DUP3 PUSH2 0x9FB JUMPI PUSH2 0x9FA PUSH2 0xAD7 JUMP JUMPDEST JUMPDEST DUP3 DUP3 DIV SWAP1 POP SWAP3 SWAP2 POP POP JUMP JUMPDEST PUSH1 0x0 PUSH2 0xA11 DUP3 PUSH2 0xA9E JUMP JUMPDEST SWAP2 POP PUSH2 0xA1C DUP4 PUSH2 0xA9E JUMP JUMPDEST SWAP3 POP DUP2 PUSH32 0xFFFFFFFFFFFFFFFFFFFFFFFFFFFFFFFFFFFFFFFFFFFFFFFFFFFFFFFFFFFFFFFF DIV DUP4 GT DUP3 ISZERO ISZERO AND ISZERO PUSH2 0xA55 JUMPI PUSH2 0xA54 PUSH2 0xAA8 JUMP JUMPDEST JUMPDEST DUP3 DUP3 MUL SWAP1 POP SWAP3 SWAP2 POP POP JUMP JUMPDEST PUSH1 0x0 PUSH2 0xA6B DUP3 PUSH2 0xA7E JUMP JUMPDEST SWAP1 POP SWAP2 SWAP1 POP JUMP JUMPDEST PUSH1 0x0 DUP2 ISZERO ISZERO SWAP1 POP SWAP2 SWAP1 POP JUMP JUMPDEST PUSH1 0x0 PUSH20 0xFFFFFFFFFFFFFFFFFFFFFFFFFFFFFFFFFFFFFFFF DUP3 AND SWAP1 POP SWAP2 SWAP1 POP JUMP JUMPDEST PUSH1 0x0 DUP2 SWAP1 POP SWAP2 SWAP1 POP JUMP JUMPDEST PUSH32 0x4E487B7100000000000000000000000000000000000000000000000000000000 PUSH1 0x0 MSTORE PUSH1 0x11 PUSH1 0x4 MSTORE PUSH1 0x24 PUSH1 0x0 REVERT JUMPDEST PUSH32 0x4E487B7100000000000000000000000000000000000000000000000000000000 PUSH1 0x0 MSTORE PUSH1 0x12 PUSH1 0x4 MSTORE PUSH1 0x24 PUSH1 0x0 REVERT JUMPDEST PUSH1 0x0 DUP1 REVERT JUMPDEST PUSH32 0x4E6F7420656E6F75676820746F207265706179206C6F616E0000000000000000 PUSH1 0x0 DUP3 ADD MSTORE POP JUMP JUMPDEST PUSH32 0x4C6F616E206E6F74207265706169642079657400000000000000000000000000 PUSH1 0x0 DUP3 ADD MSTORE POP JUMP JUMPDEST PUSH32 0x416C726561647920726570616964000000000000000000000000000000000000 PUSH1 0x0 DUP3 ADD MSTORE POP JUMP JUMPDEST PUSH32 0x4E6F20636F6C6C61746572616C20746F20776974686472617700000000000000 PUSH1 0x0 DUP3 ADD MSTORE POP JUMP JUMPDEST PUSH32 0x4E6F7420656E6F756768206C6971756964697479000000000000000000000000 PUSH1 0x0 DUP3 ADD MSTORE POP JUMP JUMPDEST PUSH32 0x4D7573742070726F7669646520636F6C6C61746572616C000000000000000000 PUSH1 0x0 DUP3 ADD MSTORE POP JUMP JUMPDEST PUSH32 0x4D757374206465706F736974206D6F7265207468616E20300000000000000000 PUSH1 0x0 DUP3 ADD MSTORE POP JUMP JUMPDEST PUSH2 0xC33 DUP2 PUSH2 0xA60 JUMP JUMPDEST DUP2 EQ PUSH2 0xC3E JUMPI PUSH1 0x0 DUP1 REVERT JUMPDEST POP JUMP INVALID LOG2 PUSH5 0x6970667358 0x22 SLT KECCAK256 BYTE DUP5 0xDA MSTORE8 0xC4 EXTCODESIZE 0x1E COINBASE 0xC7 0x24 0xD7 DUP13 ISZERO 0xCE KECCAK256 GT 0x5D 0x28 EXTCODEHASH PUSH6 0xA934253E9319 SWAP12 PUSH10 0xC6704C4064736F6C6343 STOP ADDMOD SMOD STOP CALLER "
				},
				"gasEstimates": {
					"creation": {
						"codeDepositCost": "638200",
						"executionCost": "47042",
						"totalCost": "685242"
					},
					"external": {
						"borrow()": "infinite",
						"borrowerLoans(address)": "infinite",
						"deposit()": "infinite",
						"getContractBalance()": "384",
						"interestRate()": "2496",
						"lenderBalances(address)": "2836",
						"owner()": "2511",
						"repay()": "infinite",
						"withdrawCollateral()": "infinite"
					}
				},
				"methodIdentifiers": {
					"borrow()": "e68d3569",
					"borrowerLoans(address)": "bf00a769",
					"deposit()": "d0e30db0",
					"getContractBalance()": "6f9fb98a",
					"interestRate()": "7c3a00fd",
					"lenderBalances(address)": "a27a944d",
					"owner()": "8da5cb5b",
					"repay()": "402d8883",
					"withdrawCollateral()": "59c153be"
				}
			},
			"storageLayout": {
				"storage": [
					{
						"astId": 3,
						"contract": "contracts/LendingPlatform.sol:LendingPlatform",
						"label": "owner",
						"offset": 0,
						"slot": "0",
						"type": "t_address"
					},
					{
						"astId": 6,
						"contract": "contracts/LendingPlatform.sol:LendingPlatform",
						"label": "interestRate",
						"offset": 0,
						"slot": "1",
						"type": "t_uint256"
					},
					{
						"astId": 17,
						"contract": "contracts/LendingPlatform.sol:LendingPlatform",
						"label": "lenderBalances",
						"offset": 0,
						"slot": "2",
						"type": "t_mapping(t_address,t_uint256)"
					},
					{
						"astId": 22,
						"contract": "contracts/LendingPlatform.sol:LendingPlatform",
						"label": "borrowerLoans",
						"offset": 0,
						"slot": "3",
						"type": "t_mapping(t_address,t_struct(Loan)13_storage)"
					}
				],
				"types": {
					"t_address": {
						"encoding": "inplace",
						"label": "address",
						"numberOfBytes": "20"
					},
					"t_bool": {
						"encoding": "inplace",
						"label": "bool",
						"numberOfBytes": "1"
					},
					"t_mapping(t_address,t_struct(Loan)13_storage)": {
						"encoding": "mapping",
						"key": "t_address",
						"label": "mapping(address => struct LendingPlatform.Loan)",
						"numberOfBytes": "32",
						"value": "t_struct(Loan)13_storage"
					},
					"t_mapping(t_address,t_uint256)": {
						"encoding": "mapping",
						"key": "t_address",
						"label": "mapping(address => uint256)",
						"numberOfBytes": "32",
						"value": "t_uint256"
					},
					"t_struct(Loan)13_storage": {
						"encoding": "inplace",
						"label": "struct LendingPlatform.Loan",
						"members": [
							{
								"astId": 8,
								"contract": "contracts/LendingPlatform.sol:LendingPlatform",
								"label": "collateralAmount",
								"offset": 0,
								"slot": "0",
								"type": "t_uint256"
							},
							{
								"astId": 10,
								"contract": "contracts/LendingPlatform.sol:LendingPlatform",
								"label": "loanAmount",
								"offset": 0,
								"slot": "1",
								"type": "t_uint256"
							},
							{
								"astId": 12,
								"contract": "contracts/LendingPlatform.sol:LendingPlatform",
								"label": "isRepaid",
								"offset": 0,
								"slot": "2",
								"type": "t_bool"
							}
						],
						"numberOfBytes": "96"
					},
					"t_uint256": {
						"encoding": "inplace",
						"label": "uint256",
						"numberOfBytes": "32"
					}
				}
			},
			"userdoc": {
				"kind": "user",
				"methods": {},
				"version": 1
			}
		}
	}
}